S01500007A69676265655F6D696E696D616C2E73333723
S31508006000081000204920010879AB0208F11501089B
S31508006010F115010881AB020889AB0208F1150108E0
S31508006020F1150108F1150108F1150108F115010826
S315080060308DAB020844500308F1150108F115010853
S31508006040F1150108F1150108F1150108F115010806
S31508006050F1150108F1150108F1150108F1150108F6
S31508006060F1150108F1150108F1150108F1150108E6
S31508006070F1150108F11501088D2A0108252A0108DC
S31508006080F1150108F1150108F1150108F1150108C6
S31508006090F1150108F1150108F1150108F1150108B6
S315080060A0F1150108F1150108F1150108F1150108A6
S315080060B0F1150108F1150108F1150108F115010896
S315080060C0F1150108F1150108F115010879170108FC
S315080060D0F1150108F1150108F1150108AD160108B9
S315080060E089160108F1150108F1150108F1150108CD
S315080060F0F115010859FF0208F9090308272A0308B8
S31508006100232A0308A10103083D2A03082B2A0308AA
S31508006110C90903082F2A0308390A0308A10A03082C
S31508006120F1150108F1150108F1150108F115010825
S31508006130457C0008F1150108F1150108F11501085B
S31508006140F1150108F1150108F1150108F115010805
S31508006150F1150108F1150108F1150108F1150108F5
S31508006160F1150108F1150108F1150108F1150108E5
S31508006170F1150108F1150108F1150108F1150108D5
S31508006180F1150108F1150108F11501082136030872
S3150800619009EE0208F1150108132A0308192A03084B
S315080061A0F1150108F1150108F1150108F1150108A5
S309080061B0F1150108CE
S315080061B4F0B5114A114C124E00F00105E3695F0768
S315080061C413D40DB9334213D103EA00078F4207D11A
S315080061D40B4A1A40002A0CBF00206FF00100F0BDDC
S315080061E4013AEBD16FF00200F9E74FF0FF30F6E71A
S315080061F46FF00100F3E700BF809698000000035093
S31508006204020001002DE9F84F16464FF48032274B59
S31508006214274D9A66EB69074603EA020841F6713385
S315080062240122EB63234BDFF89490DA600EB930460B
S3150800623429E007F5005404EA09046F61E41BEB69D5
S31508006244B44228BF34465B072DD48B465BF8043B1F
S3150800625401EB040AAB61D3450ED1042300212120A6
S315080062642B61FFF7A5FF70B92120FFF7A1FF50B9ED
S3150800627459462744361BD9E708210846FFF798FFED
S3150800628468B104232B6101220B4BDA60B8F1000FC5
S3150800629403D00022A3F50053DA63BDE8F88F5BF850
S315080062A4043BAB61D7E74FF0FF30ECE700900050B2
S315080062B400000350001003500020035000E0FFFFC5
S315080062D0013800D0FCE7704700280CDB012206498C
S315080062E0430900F01F008240203341F82320BFF302
S315080062F04F8FBFF36F8F704700E100E04FF06042A9
S31508006300D2F8803E1B02FBD4704780F8991070477C
S3150800631090F89900704790F896007047D0F8A43026
S315080063209A695206FCD50020D9637047D0F8A43084
S315080063309A69120643BF5B6A00200B701B207047E0
S315080063400122D0F8A43019B103F58053DA647047F6
S3150800635003F50053DA649A6470474BF6EF6283B22A
S31508006360002B08BF1346044A000C13804FF6CE23B1
S3150800637008BF1846508070479C4100207047D0E9F6
S31508006380023253F822301A88014B9A80704700BFB0
S315080063909C410020C3688268013BDBB252F8233077
S315080063A05B78652B03D10022064B1A7170476E2B5A
S315080063B002D10122034BF8E7662BF7D10222014BE3
S315080063C0F3E700BF402C0020C3688268013BDBB2BC
S315080063D052F823305B78A3F1660253425341014ACF
S315080063E0937170479C410020D0E9023253F822107D
S315080063F003EB8203087803495B6808701A78024B36
S315080064001A7070476C1C0020691C00207047704782
S31508006410024A537943F0010353717047402C002018
S31508006420D0E9023253F82230034A1B78003B18BFE2
S315080064300123DB0093717047402C0020D0E902321B
S3150800644053F82230034A1B78003B18BF0123D37147
S31508006450704700BF402C0020D0E9023253F82230A2
S31508006460034A1B78003B18BF0123D371704700BF4E
S315080064709C4100207047704710B54C1C0B4601190B
S31508006480045D222C03D07B2C01D05C2C05D1D21ABA
S3150800649018442CF0A1FC012010BD0020FCE72DE9D2
S315080064A0F0470F4615460024DFF8709002F10408FD
S315080064B099F8086002F1090A5FFA88F8A24505D832
S315080064C0013689F808600020BDE8F087052C11D848
S315080064D0DFE804F01D08030A0C0ED12020F039FD70
S315080064E00134EBE74046F9E70220F7E70020F5E735
S315080064F03046F3E7AB1D9C420BD0EB1D9C4208D0FF
S3150800650005F108039C4206D0BB1F185DE6E75B2031
S31508006510E4E75A20E2E75D20E0E700BF402C0020D0
S3150800652070B5044608B9012070BD057D28460CF0F3
S3150800653043FB30236B4303F1A04303F5802328462E
S31508006540DE6E0CF05BFB0A4B9E421CBF042384F8EC
S31508006550A13094F8953094F8A1002BB1022803D104
S31508006560012384F8A130DFE70428DCD1F8E700BF6F
S31508006570AC1500202DE9F743D0E9043404F17C0773
S31508006580D0F80C900646013B102200213846D4F874
S3150800659074809DB22CF00BFC0B4BC5F30A0543EA3D
S315080065A00513C4E91F39012394F8780084F88C3060
S315080065B0C4F884803A46054B009604F1640124F039
S315080065C04BF803B0BDE8F08300001030D165000831
S315080065D0536910B514460022D3F8900083F88C202E
S315080065E028B10168C3F890100260FFF7C3FF63681B
S315080065F01BB100212046A2689847002010BD03461B
S3150800660093F89420084610B5FAB10A69B2F5006FF6
S315080066101DD8EFF31184302282F3118893F88C2069
S315080066204B617AB103F19002D3F890303BB903601D
S31508006630106084F31188BFF36F8F002010BD1A46CF
S315080066401B68F3E7FFF796FFF3E70E20F6E721202E
S31508006650F4E713B504460DF10701007D2EF026F97F
S315080066609DF8073043B1236DD4E9120202449342E0
S3150800667018BF184602B010BD3022237D534303F1DC
S31508006680A04303F58023DB6EEEE7034A537923F034
S3150800669001035371704700BF402C0020D0E9023235
S315080066A053F8223000201A88024B03491A8108F051
S315080066B02DBD00BF9C410020D05003087FB50023A4
S315080066C0CDE90333CDE901334FF4FA63009301238F
S315080066D004481A460449008A08F018FD07B05DF810
S315080066E004FB00BF402C00201E5103085422002141
S315080066F001482CF05CBB00BF522C0020F6E710B511
S31508006700074C5422FF2104F166002CF050FB04F1DB
S31508006710BA005422BDE81040FF212CF048BB00BF48
S31508006720402C0020EBE707B5D0E9023253F82230B7
S315080067301A78292A10D80A490A4B01EB4201B1F8FE
S315080067400E1153F82230009107490020002B08BF8C
S315080067500B46064908F0DAFC03B05DF804FB00BFF7
S31508006760402C00204C9D030841510308455103085D
S3150800677038B5D0E9023253F8221003EB82035B687E
S315080067800D78002005491C8808F0C0FC044B03EB73
S315080067904503A3F86640A3F8BA4038BD505103082C
S315080067A0402C00202DE9F34100240C4E0C4DDFF857
S315080067B038800C4F56F8043B35F8022B002B08BFDF
S315080067C043460092394622460020013408F09EFCD2
S315080067D02A2CEFD102B0BDE8F08100BF4C9D03081A
S315080067E0FA2C002045510308415103082DE9F341CD
S315080067F000240C4E0C4DDFF838800C4F56F8043B3D
S3150800680035F8022B002B08BF43460092394622462C
S315080068100020013408F07AFC2A2CEFD102B0BDE83A
S31508006820F08100BF4C9D03084E2D002045510308FA
S315080068304151030838B5542508482A4600F1120480
S31508006840214600F587702CF0BAFA2A462046002120
S315080068502CF0ADFABDE83840C8E700BF402C002050
S3150800686008B50548542200F1120100F587702CF08E
S31508006870A6FABDE80840B9E7402C002008B5C36869
S31508006880806803F18043023B50F823000222064940
S315080068902CF07DFA054B10B983F8620108BD002279
S315080068A083F86321FAE700BFCE620308402C002074
S315080068B01EF09EBDD0E9023253F822300021187826
S315080068C008F09CBD08B5D0E9023253F8220003EB64
S315080068D082035968FF22038809684FF6FF701AF089
S315080068E021FCBDE8084002460149002008F0EEBE3A
S315080068F06A5103081FB500248DF80040E0B26946C6
S31508006900013418F035FD0A2CF8D118F023FE04B02E
S3150800691010BD2DE9FF41D0E9023253F8221003EBEE
S3150800692082035B68B1F800801F88224B9C8807F0B9
S3150800693061F9054630B9204A204904B0BDE8F0415E
S3150800694008F0E4BB4FF6FB739C420AD94FF6FD7379
S315080069509C4204D00020184A194908F0D7FB4FF684
S31508006960FD740026012241460DF10E032046CDE9AD
S315080069700066ADF80E701EF0D9FC124A034692F86E
S31508006980648138B130460C4A0F4904B0BDE8F0417D
S3150800699008F0BCBB3B46084A0C4908F0B7FB062280
S315080069A02146284608F07F0304B0BDE8F0411FF0F1
S315080069B05CBD00BF9C4100208B510308965103081B
S315080069C0C0510308402C0020F55103081E52030845
S315080069D070B5D0E902328EB053F8223003AD2A469C
S315080069E001211E7804461EF0EFFC012305AA0221A8
S315080069F000932046102307F071F909A807F068FAF2
S31508006A0095E8030004238DF824300AAB83E80300D5
S31508006A1005A909A88DF8256009F0A4FF01460448D0
S31508006A2008F03EFF0020034908F070FB0EB070BD69
S31508006A3046520308114D030837B5044606F012FE00
S31508006A40014638B100200E4A0E4903B0BDE8304071
S31508006A5008F05CBBE368A268013BDBB252F823305E
S31508006A6009481D780123A0F110026C2D18BF0246B3
S31508006A7000932046102307F031F903B030BD00BF5C
S31508006A80535203085B520308B641002008B5D0E903
S31508006A90023253F822300E481B78002B14BF01230C
S31508006AA0002380F8653110D00A4B1B8933B14FF4A7
S31508006AB07A7100F5B47059432DF01EF9064A002084
S31508006AC0BDE80840054908F021BB054AF7E700BFBD
S31508006AD0402C00209C410020715203087F52030875
S31508006AE07652030813B583689A681278672A22D102
S31508006AF0684618F089F80446A8B92849BDF8002060
S31508006B0008F004FBBDF80030D9070AD413F0020FC9
S31508006B10234B244A18BF1A462349002008F0F6FAE0
S31508006B2038E0224AF8E702462149002008F0EEFA42
S31508006B3022462049F1E7C26853F8221003EB820384
S31508006B4000225B6809681B88ADF804201A4AADF86C
S31508006B500030914220D1DA0701D52324E8E79B07C4
S31508006B6048BF4FF47F430DF1060248BFADF8043025
S31508006B707F21022343F2602023F0E0FC4FF6FF73E7
S31508006B80BDF806209A42E8D1022243F2602001A904
S31508006B9022F0AAFE02B010BD2124C9E7E25203087A
S31508006BA0D0520308DD52030803530308C0520308F2
S31508006BB015530308415303081FD1BACA00232DE908
S31508006BC0F04F89B0DFF8D481049398F898219DF89E
S31508006BD010309A4202D809B0BDE8F08F1A0108EBC6
S31508006BE0031300205D49059293F8882108F08EFA70
S31508006BF000205B4908F08AFA4FF0000A059B5FFA05
S31508006C008AF44344D3F890311A79A24202D8049BF5
S31508006C100133D7E714224FF000091B6802FB04343E
S31508006C2022891FFA89F39A4202D80AF1010AE5E78E
S31508006C300C231FFA89F75F43D4F804B049490BEBD4
S31508006C4007052B79228813F0400F3BF807304FF0E1
S31508006C5000000093444B18BF0B46444908F036FD24
S31508006C602946204606F04AFD064600283ED14049F8
S31508006C7008F02CFD2979DFF828C111F0010F3D48ED
S31508006C8008BF604611F0020FAA78EB7834D1DFF816
S31508006C9014C111F0100F384918BF6146CDE900013B
S31508006CA00020364908F012FD059B3BF8072008EB43
S31508006CB003002B794FF0000B13F0400F4FF002033F
S31508006CC007AF2188CDE9023BCDE900670CBF402319
S31508006CD0802390F8880108F04FFC86280ED12849B1
S31508006CE0002008F013FA09F1010999E70246254937
S31508006CF0002008F0EBFCBDE72349CFE7AB78A3F10A
S31508006D004102012A1ED89DF81C20FF2A08BF00222E
S31508006D100132D2B21D4B3946002008F0DFFD31465C
S31508006D20208806F079FF4FF6FF73984208D0184B73
S31508006D30184903EBC003D3F8B020002008F0E6F9A1
S31508006D401549CDE7433B012B05D8384606F095FE95
S31508006D50821C92B2DEE7EA78DCE700BF78530308C4
S31508006D60865303085053030855530308C6530308AC
S31508006D70DA5303085D53030870530308DF53030807
S31508006D80FB53030846CC03086053030844C70308AB
S31508006D904C9D030863BC0308114D0308402C0020D2
S31508006DA05A5303086853030830B589B0002103AA6B
S31508006DB01EF00AFB06F01EFF054628B9144A1549B7
S31508006DC008F0A4F909B030BD0024134B134ACDE9E5
S31508006DD005434FF6FD7003ABCDE9004405A9ADF8B0
S31508006DE01C4019F0CCFF0E4B024693F8993130B18E
S31508006DF00346074A20460B4908F088F9E2E74FF6AA
S31508006E00FC71284643F080031FF02FFBDAE700BF2A
S31508006E108B51030896510308010000040754030820
S31508006E20402C00200B540308D0E9023253F82230D4
S31508006E3070B51D8806F0DEFE044628B9BDE8704028
S31508006E400D4A0E4908F062B928461EF07DFD0C4B26
S31508006E5093F89921034630B1BDE870400020064AF0
S31508006E60084908F053B929462046BDE8704042F063
S31508006E70800301221FF0F9BA8B51030896510308C3
S31508006E80402C0020385403081FB5D0E9023253F8C5
S31508006E90221003EB82035B6808881B7840228DF872
S31508006EA00D3002233121009303AB06F061FF024641
S31508006EB00020034905B05DF804EB08F007BC00BFE5
S31508006EC0665403081FB5D0E9023253F8221003EBC3
S31508006ED082035B6808881B7840228DF80D300223F0
S31508006EE03321009303AB06F043FF02460020034913
S31508006EF005B05DF804EB08F0E9BB00BF8054030851
S31508006F0008B5D0E9023253F8223005214022188804
S31508006F1006F040FFBDE8084002460249002008F096
S31508006F20D5BB00BF9E5403082DE9F0470546914698
S31508006F3088462BF087FF2A460646134619780132FB
S31508006F402029FAD0C9F800305C1B01236FF0404AAB
S31508006F50C8F80030A64201D8002014E02F5D291990
S31508006F607B2F12D0222F2ED1D8F80030621C534422
S31508006F702A4449F82320012C09D911F8013C13F0B9
S31508006F80DF0F04D02120BDE8F0877D27F3E7013421
S31508006F902B5DBB4209D12B195B7813F0DF03F1D1C6
S31508006FA0222F00D12B550134D4E75C2B07D132466A
S31508006FB021462846FFF760FA0028E3D0013E01344F
S31508006FC0A642E5D8DEE75C2F08D132462146284698
S31508006FD0FFF752FA0028D5D0013EE4E7202FE2D188
S31508006FE00022631C9E420A70DDD9EA18EB5C202B4E
S31508006FF0D9D0D8F800300F2B05DC49F82320013307
S31508007000C8F80030CFE71E20BDE70028ACBF00F166
S315080070106040064B4FEA0111C9B2ABBF00F56140AB
S3150800702000F00F0080F800131954704714ED00E0C3
S31508007030002808DB01224309034900F01F008240AB
S31508007040603341F82320704700E100E0002807DBA1
S3150800705001234109034A00F01F00834042F821300A
S31508007060704700BF00E100E0302337B5007D0DF121
S315080070700701434303F1A04303F58023DD6E1C6F2C
S315080070802DF014FC9DF8070040B9054B9D4203D12D
S3150800709084F00204C4F3400003B030BD0120FBE7CE
S315080070A0AC1500203021037D02464B4303F1A04373
S315080070B003F58023D86E07491B6F884208D113F061
S315080070C0020006D0106A136D1B1A584258417047C1
S315080070D000207047AC1500202DE9FF470446007DC7
S315080070E004F138060BF068FD1022002130462BF01B
S315080070F05EFE4FF0300A4FF44473207DDFF810919E
S315080071003F4F63870AFB0093C4E90F77DB6EBB42E8
S3150800711004D104B0BDE8F0470BF070BD0DF10F01C6
S315080071202DF0C4FB9DF80F70002F62D12046FFF7A3
S3150800713090FA344A80461278237DEAB1072B1BD889
S31508007140314A02EB0312127BB2B1EFF311818AF3D3
S315080071501188D9F834000AFB0399D9F8642081F319
S315080071601188BFF36F8F012101FA03F3034204BFAD
S31508007170C2F30A135F183D4604F1180710220021CE
S315080071803846D4F810902BF012FE3022237D013DAC
S315080071905343C5F30A052D0145F04075C4E9065960
S315080071A003F1A043C4F8208003F580231A6F94F8EE
S315080071B02410520862F3410184F82410196F94F8D8
S315080071C0242027F0030761F3000284F824201B6FAC
S315080071D0626A9B0863F39F0247F00207626267646C
S315080071E00094207D32462146084B23F035FA207D4F
S315080071F08FE794F844306FF3410384F84430EFE79F
S31508007200AC150020EC14002070110020457400080D
S31508007210000004502DE9F04F9B460023044689B030
S3150800722005910392CBF80030DBF80050039B5E1BF8
S3150800723000F0A180059B5D1900F09D80207D0BF074
S31508007240BBFC2046FFF72EFF8146207D0BF0D6FCBF
S31508007250B9F1000F40F08F802046FFF7FAF9216D4B
S3150800726094F89A8088429CBFD4E91203C018401A41
S31508007270864228BF0646B8F1000F00F0AC80EFF34F
S3150800728011830493302383F311883746D4F850A02A
S315080072902046FFF7E9FE0AEB06029245D4F89C1051
S315080072A072D1D4E912231344994208BFC4F89C202A
S315080072B0049B83F31188BFF36F8F8046207D0BF004
S315080072C07BFC207D0DF11F012DF0F0FA2046FFF71B
S315080072D0C0F9D4F850A08146504540F28A80A36C84
S315080072E0B5B29A457DD123691022049304F1280387
S315080072F0002118462BF05BFD3021049A013DC4E9B4
S315080073000B2A227DC5F30A054A432D0120F0030303
S3150800731002F1A04245F0407543F0020302F58022CF
S31508007320A5621367236DD4E9121233440A449342C3
S3150800733008BF0B464B45236505D10123204684F833
S315080073405430FFF7C9FE207D0BF058FC94F89A30AC
S315080073503BB1B8F1000F04D0236E112120465B68BB
S315080073609847DBF8003037B1039A3B449342CBF891
S315080073700030FFF459AFDBF80030002B14BF0020B3
S315080073801B2009B0BDE8F08F0AF1010A0AF1FF33A4
S31508007390994210D1C4F89CA01AF8013C112B01D0CF
S315080073A0132B14D1013FA3F111014B424B41C146A6
S315080073B084F8A03071E71AF8013C03F0FD011129A1
S315080073C006D1013FB9F1000F3FF467AFEBE7C146BD
S315080073D005F8013B61E7324628462BF0F0FC3746B4
S315080073E06CE7238DC3F30A12154465F30E13238540
S315080073F098E79DF81F30207D93B93023434303F166
S31508007400A04303F58023596E5A6EC1F30A1122F47C
S31508007410FF42314422F0700242EA01125A6681E7BD
S31508007420CDE900644A462369216823F0ADF8302285
S31508007430237D534303F1A04303F580235A6E22F4B8
S315080074408012EBE792F8543037B5144633B1936D92
S315080074500BB1D06D9847002384F8543094F89A30CD
S315080074601BB32046FFF700FEF8B1236E1321204612
S315080074705B6898471025236E20461B680DF10701A7
S31508007480984778B99DF8073003F0FD02112A05D10F
S31508007490A3F111025342534184F8A030013D15F07F
S315080074A0FF05E8D12046FFF717FE002084F85400B0
S315080074B003B030BD302383F311884FF20F02094B16
S315080074C018805A80BFF35F8FBFF34F8F0649074B6B
S315080074D0CA6802F4E0621343CB60BFF34F8F00BF64
S315080074E0FDE700BF183F002000ED00E00400FA05A4
S315080074F040F2016008B5FFF7DDFF6F4A2DE9F0415C
S315080075006E4B55686E4C9D65516AD9656D49D1F8C3
S3150800751000021866D1F804025866D1F80812986B6A
S315080075209966916A10F0040FD966D16A4FF0000087
S315080075301967116B5967516B9967D26B1865DA67CA
S31508007540D3E90F1218BF11465F4A91425A655DD3B7
S3150800755001F12000A04259D88869C5F30805586486
S31508007560CE69062D9E6455D1584DA84252D3584D22
S31508007570A8424FD205884DF6426085424AD15868DE
S31508007580C3F898009868C3F89C0040F20170A242BC
S31508007590154604D22E680432B6F1CD3FF7D0002244
S315080075A0C3E92022C3E92222C3E92422641BDFF8A7
S315080075B01CC1434DDFF818E1DC648D422DD8D3E9B0
S315080075C020C7D3E92265D3E924414FF0000E013ADA
S315080075D0D2B2FF2A3CD1BEF1000F05D0C3E920C7BD
S315080075E0C3E92265C3E92441B3F85830C3F3080355
S315080075F00C2B3BD8022B54D9DA1E092A51D8DFE8BE
S3150800760002F03157404350505050504D0021C3E9C5
S3150800761011112D494FF42060B9E755F8044D64451A
S31508007620CBD37445C9D2E607C7D50026294F57F8E4
S31508007630048FA045C1D00136062EF8D132B1013AE1
S31508007640D2B203EB8206C6F88040B6E70522F8E711
S31508007650E0464FF0010EBC4637462E4625460C46F8
S315080076604146B4E740F60120BDE8F0814A2B18D11F
S31508007670194B9B6913F0020F40F2025318BF1846C4
S31508007680F2E740F60320EFE740F2017240F60423E2
S31508007690B0F5206F14BF10461846E5E740F60520FA
S315080076A0E2E740F60722013B6B2B98BF1046DBE763
S315080076B040F60220D8E700BF00ED00E0183F0020A2
S315080076C00810002000E100E008000020D062000851
S315080076D0C04A0308943F00200040005B0B4AB2F9F9
S315080076E000301088002BB8BF80F06200B2F9021093
S315080076F04300138053880029BCBF83F4805383F06A
S315080077000B03590051805840704700BF9C41002028
S315080077102DE9F74F002800F0E8807549D1E96D4E4C
S31508007720EFF3118B302383F3118810F8086C30F8C7
S3150800773006CCF30702D5BCF1000F07D18BF31188ED
S31508007740BFF36F8F012003B0BDE8F08FD1F8A831E1
S31508007750D1F8B091A3EBCC0330F8048C0093C1F8B0
S31508007760A83109F10103A0F108050CF10102C1F8DD
S31508007770B031B8F1000F3BD0A5EBC803DF88B3F8EA
S3150800778002A001971F7806F00206FF0725D42EBB34
S31508007790019EA6EB0A06012E2AD1009E0CF10202D2
S315080077A0A6F108075244C1F8B091C1F8A87130F89B
S315080077B0028CB8F1000F1DD110F8085C20F8068C71
S315080077C068F3000500F8085C013A5A801A7868F3ED
S315080077D000021A700022DA803FE04EB110F8086CF9
S315080077E042446FF3410600F8086C00269E80DEE7E7
S315080077F02B46DCE705EBC809D1E968673744B94584
S315080078000ED310F8085C013A6FF3000500F8085C1F
S31508007810002520F8065C5A801A7865F30002D8E736
S3150800782015F838504E4615F0010530D010F8085CAA
S31508007830013A6FF3000500F8085C002592B220F8BB
S31508007840065C5A801A7865F300021A70C3F10702BB
S315080078503244C2F3CF02DA80B280002C43D09C4275
S3150800786041D86288002A08BF1C46BEF1000F06D020
S315080078709E4504D3BEF80220002A18BF7346C1E904
S315080078806D438BF31188BFF36F8F00205BE7A8EB7E
S315080078900C08B8F1010FC9D1B9F80270A9F802505D
S315080078A01744B9F80620E2B109EBC2060025D1F85B
S315080078B0B021013AC1F8B021D1F8A821083AC1F897
S315080078C0A82110F8082C20F8065C6FF3000200F8CF
S315080078D0082C1A785F8065F300021A70002EB5D15D
S315080078E078E71646E2E71C46BFE722202BE700BFEB
S315080078F0402C0020002313B5019369B160B101FB48
S3150800790000F401A920461FF0ACF8014620B90198F9
S3150800791010B122462BF04BFA019802B010BDFEE7D3
S31508007920002307B5084601A901931FF09AF80198A4
S3150800793003B05DF804FB0846EAE608461146D9E7AF
S31508007940002303604360704730B5D0E9054553B35B
S3150800795094420FD0E2B9046974B9036983B3002964
S3150800796018BF0D462B78DB0714D5AB8843B3A5EBB8
S31508007970C305F7E704698CB141B904682378DB07C6
S315080079800CD5E3884BB104EBC304F7E70C46F5E7DF
S315080079909542E2D0C0E9054530BD1C469542DCD08B
S315080079A0002ADAD0F6E7944208D08C4228BF0C4663
S315080079B0954207D08D4238BF0D46EBE70C46F7E7F0
S315080079C01D46E7E70D46E5E700232DE9F3478B4E0D
S315080079D00193D6F8A4310C469A42104604D239B916
S315080079E012B101A91FF03DF8019802B0BDE8F08771
S315080079F01AB90846FFF78CFEF6E7EFF3118730232E
S31508007A0083F3118834F8063C07304FEAC30820F0A0
S31508007A100705A845A1F108017ED234F8020C002812
S31508007A2068D0C21A012A65D101EBC00211F83000EC
S31508007A30C0075FD4B2F802C0A8EB050919EBCC0958
S31508007A4058D4B9F11F0F38DDC5F3CF03611924F8EF
S31508007A50063C0133084624F8023CFFF771FF34F868
S31508007A60020C4FEAD9038880D0884B8010B3B2F84D
S31508007A7002C0A0EB0C0C1CFA83F39BB202EBC0000D
S31508007A80CB80838000235E48FFF75EFF1046FFF732
S31508007A9057FFD6F8A831D6F8AC212B44A3EB080338
S31508007AA093420194C6F8A83133D887F31188BFF3F7
S31508007AB06F8F99E70023CB80E4E7D6F8B00101334E
S31508007AC00138C6F8B001D088634424F8063C68B18A
S31508007AD0B2F802C0A0EB0C0C1CFA83F39BB202EBC3
S31508007AE0C00024F8023C83800123CCE7002324F855
S31508007AF0023CF9E7284601A91EF0B3FF0028D4D1B5
S31508007B004246214601982BF05AF92046FFF700FE17
S31508007B10CBE7C6F8AC31C8E76ED934F8020CA8EB47
S31508007B20050900F1FF3AAAEB030A002839D011F833
S31508007B30303001EBC002DB0734D4BAF1000F31D183
S31508007B40C5F3CF03611924F8063C0133084624F827
S31508007B50023CFFF7F5FE508800EBD90334F8020C17
S31508007B604B808880D088D0B1B2F802C0A0EB0C0C4C
S31508007B701CFA83F39BB202EBC000CB8083802048BB
S31508007B800023FFF7E1FE1046FFF7DAFED6F8A83124
S31508007B9001941D44A5EB0805C6F8A85185E7C880D9
S31508007BA0EDE70246B9F1270FF0D9C5F3CF036119FE
S31508007BB024F8063C0133084624F8023CFFF7C0FEC9
S31508007BC034F8020C09F1FF33DB084B8088808AB150
S31508007BD00AF1010A1AFA83F39BB2CB809380D6F88E
S31508007BE0B03107480133C6F8B03100231A46FFF70B
S31508007BF0ABFECBE7CA80F2E7019456E7402C00209B
S31508007C00E02D002010B50A4C94F8D53173B194F8DC
S31508007C10D6315BB12BF06CFA002384F8D63184F8A0
S31508007C20D731012384F8D83184F8D93110BD00BF83
S31508007C30402C00200122024B83F8D421704700BF54
S31508007C40402C0020464A70B5156F15F004032AD05B
S31508007C504449454C0B6708238B62926D12F0010F5D
S31508007C6013D1D4F89C21B2F57A7F0ED93F4E326CE7
S31508007C7012070AD53E4A13642CF03CFD736D23B1F6
S31508007C80C4F8DC31012384F8E03194F8D53113B116
S31508007C90012384F8D631FFF7B5FF0123042284F8BF
S31508007CA0E131334B1A6415F001062BD001222D4B16
S31508007CB02D4C1A6794F8E03113B32BF04BFAD4F82D
S31508007CC0DC31C01AC4F8E401D4F8E4310BB1D4F8B5
S31508007CD0E4614FF41671C4F8E461D4F8E431D4F8D9
S31508007CE09C31D4F8E4214B43224903F5742303F26B
S31508007CF03F23B3FBF1F3934210D2002384F8E0311B
S31508007D00FFF780FF15F000521CBF164B1A67002DAF
S31508007D10BEBF4FF00042134B1A6770BD94F8E831A6
S31508007D20D4F8E41104EB8300D0F8F0210133511A9A
S31508007D30D4F8EC21DBB2521AD4F8E411C4F8EC21D9
S31508007D40C0F8F0110A210932B2FBF1F2C4F8182280
S31508007D50B3FBF1F201FB123384F8E831CDE700BF3B
S31508007D600040005A0060005A402C002000C00A500B
S31508007D7000E00A5040420F0020282DE9F743054647
S31508007D8004D82C46204603B0BDE8F08300242746D5
S31508007D900B4EDFF83080DFF83090002348461A464D
S31508007DA01946CDE900870BF0D7FA8442E9D2212C8F
S31508007DB0E7D056F8043BAB42E4D00134EDE700BF08
S31508007DC00C9E0308FFFF0F00C016002073B515466A
S31508007DD01A464BF234637F2D08BF002599420446A4
S31508007DE019D16A467F2141F20200082322F0A6FB38
S31508007DF00822684627492AF0CAFF30B908236A4686
S31508007E007F2141F2F01022F099FB6B4603CB2060EC
S31508007E10616002B070BD41F2F01399421ED11E4B4B
S31508007E20986CD96C002AF4D01346651E161F013BC0
S31508007E30B34205F8010F4FEA10200CD1002BE8D009
S31508007E400423D8B20728E1544FEA1121E1D00133BF
S31508007E509A42F6D1DDE7002BE9D1DAE701F470435F
S31508007E60B3F5805F0AD1C1F30B0404F17E6402FB0B
S31508007E70054102B0BDE870402AF0A1BF01F4604395
S31508007E80B3F5005FC5D1C1F30B0404F1036404F52F
S31508007E90F034ECE7909E03080080E00F10B5044626
S31508007EA02BF044F80C4BA0F57A729A4212D84FF48C
S31508007EB07A73B0FBF3F05C43084BB3FBF0F3B4FB07
S31508007EC0F3F0022806D9BDE810400323B0FBF3F00F
S31508007ED0FEF7FEB910BD00BFFFC99A3B40420F002E
S31508007EE04FF48A5330B5174D174CA5F82012A5F84C
S31508007EF02432B5F82A3295F82C52003D18BF0125D0
S31508007F00002B14BF012100214FEA810141EA051126
S31508007F1040EA010014BF0321012120700B481EBF4F
S31508007F2063701B0AA37090F82A300133DBB280F81D
S31508007F302A3003F07F0363544B1CE254044B02318E
S31508007F40198030BD402C00205C1700209C41002081
S31508007F505A170020034A04491388C854013313806A
S31508007F60704700BF5A1700205C17002010B504465A
S31508007F70C0B2FFF7EFFF200ABDE81040EAE738B5C0
S31508007F80D1E902320C46054653F8223002461988D2
S31508007F900B4B9879FFF7A4FFE368A268013352F800
S31508007FA023301888FFF7E2FF45B1E368A268023379
S31508007FB052F823301878BDE83840CBE738BD00BF03
S31508007FC0402C002010B5EFF3108072B6034BD3F89F
S31508007FD030422CF08EFC204610BD00BF402C0020FD
S31508007FE007B58DF8071030B9FFF7ECFF18B923204D
S31508007FF003B05DF804FB4368002BF8D001220DF1AD
S31508008000070100689847F3E70B4601461846E7E775
S3150800801030B50C46154685B008B9FFF7D3FF084BAF
S315080080204FF0FF32CDE902300095234602A90548F4
S3150800803006F08FFD0028D4BF3720002005B030BDDC
S31508008040098000082BCB00080FB407B504AA52F81C
S31508008050041B00200192FFF7DBFF002003B05DF848
S3150800806004EB04B070472DE9F04F00218346ADF5C7
S31508008070477D7C2207A806912AF099FE58462AF0E1
S31508008080E1FE46AA019026A95846FEF74DFF04468A
S31508008090B0BB46982AF0D6FEA0460546A146274616
S315080080A0DBF89C6086BBB8F1010F40F0D18006A8CA
S315080080B02AF0C8FE05EB040805F11803471B27EA52
S315080080C0E7750BEB08090DEB03042A4621464846DB
S315080080D02AF075FE09F80560DBF89050A845DBF82C
S315080080E0902000F3A580DBF894103A443944CBF885
S315080080F09410CBF8902027443B1B002B00F3A38059
S315080081000DF5477DBDE8F08FD6F808A0BAF1000F47
S3150800811061D05F4417F8012B202A14D000270C23BE
S3150800812003FB07F20AEB020302935AF802300093A4
S31508008130002B4AD0269B9945049346DC029B1A7A63
S315080081401AB17A1C2FE00134E4E746AADBF894500A
S3150800815052F829302D1B2A461846009903932AF00F
S3150800816055FE05900028ECD100982AF06BFE029B7C
S3150800817001465868059A90F80CC0BCF1FE0F16D156
S31508008180049B03F1FF3CE14527D0D0F800A00398F3
S3150800819000922AF057FE0134009A04441BF8041092
S315080081A019B109F101091746B9E70134F6E78D4215
S315080081B0C7DC06A802912AF045FE029908447B28E6
S315080081C019D9744906A81EF0ABFE5A46019B03EB63
S315080081D00B018A4223D1366864E78D42E9DD1446ED
S315080081E04FF00C0A05680AFB04F2A95871B9A044B5
S315080081F00D46019CE9E7009906A81EF091FE66491E
S3150800820006A808F101081EF08BFE9AE706A81EF0DC
S3150800821087FE614906A81EF083FE0134E3E712F8DB
S31508008220010B0028D5D14FF0200302F8013CD0E716
S315080082301BF8020021F0D6FBDBF89020013501324D
S31508008240CBF890204AE714F8010B21F0CBFB53E753
S315080082507FF756AF26AF8022314638460DF58C7A21
S315080082602AF0A5FD4FF40072314650462AF09FFDCC
S3150800827006AB1A464FF0010912F8018BB8F1000F48
S315080082804AD118464AF8296000932AF0DBFDBC4615
S315080082904246009B06A913F801EB0DF58C7858F8B1
S315080082A0046B864242D1013291450CF801EBF2DAB1
S315080082B0DBF89060AE4240DB384A06A95B46384890
S315080082C0FFF7C2FE38462AF0BDFD02462C442F446D
S315080082D0551B25EAE5720BEB040014440BEB040668
S315080082E00BF190018E424FD90BF1980188424BD27F
S315080082F0791E4619321A002A39DD11F8012F00F8BD
S31508008300012BDBF890200132CBF89020DBF8942083
S315080083100132CBF89420EDE7B8F1200F06F10106FB
S3150800832004BF4AF8296009F10109A5E70E44B65CBD
S315080083307645B4D00021B954BAE7DBF89020013667
S315080083401BF8020021F04EFBDBF890200132CBF837
S315080083509020AFE7DBF89010013A0131CBF8901086
S31508008360DBF894100131CBF89410002AF2DC0022D5
S315080083703D440BF80420EB1B002B7FF7C1AE17F822
S31508008380010B21F02FFBF6E739462AF018FD2A469D
S31508008390EBE700BFBF540308805D0308C454030815
S315080083A0C75403082DE9F843D0E9245604460F4676
S315080083B0002294F89830012B07D10A2F07D1002301
S315080083C084F898300020BDE8F88300F29F801B2FC0
S315080083D001D10223F4E70D2F0DD1012384F898303B
S315080083E00D2021F0FFFA0A2021F0FCFA00230120D3
S315080083F0C4E92433E7E74FF00008082F84F898808B
S3150800840034D1454530DDB5420FD1384621F0EAFA78
S31508008410202021F0E7FA013D384621F0E3FA013E33
S3150800842004F80580C4E92456CCE7FBDA05F1FF39E0
S31508008430384621F0D7FA04EB0903A6EB09026119BD
S3150800844018462AF0C9FC04F806800146013E484849
S31508008450FFF7FAFD35464D4501DC4D46E2E70820B3
S3150800846021F0C0FA013DF6E7ACD0DBE77F2F1CD13F
S31508008470002EA7DDB542A5DA6319691C2144184602
S31508008480721B2AF0A9FC04F8068001463948FFF752
S31508008490DBFD0820013E21F0A5FAB542F9D1D4F852
S315080084A09430013BC4F894308CE70A2F98D0092FF2
S315080084B003D12046FFF7D7FD84E7D4F88C30013B7B
S315080084C0B3427FF77FAFB54204EB050805F1010912
S315080084D00CDB384688F80070D4F89430C4F89090CD
S315080084E00133C4F8943021F07DFA6BE74146721BDC
S315080084F004EB09002AF070FC4046FFF7A5FD0820AA
S31508008500013E21F06FFAB542F9DDE2E7022B06D10A
S315080085105B2F01D1032353E784F8982049E7032BFF
S315080085207FF450AF413F84F89820032F3FF64AAFB7
S31508008530DFE807F002070A160121204600F01CF8BA
S3150800854040E74FF0FF31F8E7B542BFF63BAF605D55
S3150800855021F048FAD4F890300133C4F8903031E766
S31508008560002D7FF72FAF013D0820C4F89050BAE7D9
S31508008570D05403085B58030873B50D4604460EF03D
S3150800858015FD6B1C25D1D4F8AC3213B1013BC4F8E8
S31508008590AC32002520462AF055FCA84221D80021F5
S315080085A02046D4F88C202AF002FC0023C4E92433A0
S315080085B0D4F8AC325BB16A46204601A90EF00AFD32
S315080085C028B1019D04F1AC06009BAB4214D802B059
S315080085D070BD012DFBD1D4F8AC328342F7D20133FA
S315080085E0D5E7082021F0FEF9202021F0FBF9082024
S315080085F021F0F8F90135CDE7715D2046FFF7D2FE87
S315080086000135E1E70EB403B503AA52F8041B01923B
S31508008610FFF7FEFC02B05DF804EB03B070470228D2
S3150800862001D12CF08FB9704773B50D46910730D438
S3150800863083072ED1034622F0030281188B4217D1F5
S315080086404FF48031174BAC18996641F6713103F532
S315080086501C33D963012103F50053D960461BA54293
S3150800866005EB060009D102B0BDE870400DF07CBCF0
S315080086701C6801340DD10433E0E7042255F8043BA5
S315080086800DEB020101932CF02BFA0028E7D00DF030
S315080086906BFC4FF49C71044802B0BDE870402AF0A8
S315080086A0B9BD00BF009000505055030810B50446E8
S315080086B08069C20700F002030AD4CBB9E3690BB399
S315080086C0204607F021FF2046E369BDE81040184719
S315080086D0002BF3D0A5210E482AF09CFDE36963B16F
S315080086E0204607F011FFE369607EBDE81040184791
S315080086F0C0F3072005F047FAF0E7AD2104482AF051
S3150800870089FDEDE7AD2102482AF084FDD8E700BFD0
S31508008710C8550308F8B504460D46EFF3118630230D
S3150800872083F3118890F89630A1B173B990F8983010
S315080087305BB1EFF3108572B601202CF04DF8284690
S315080087402CF0D7F8012384F8963086F31188BFF306
S315080087506F8FF8BD002BF8D0EFF3108772B6084676
S315080087602CF03AF838462CF0C4F884F89650ECE722
S3150800877090F894302DE9F74F04460D461646002B1F
S3150800878040F0928090F89970EFF31188302282F3C6
S31508008790118890F895206AB190F8982052B180F81F
S315080087A09530EFF3108972B601202CF015F848467B
S315080087B02CF09FF888F31188BFF36F8F4FF03008BD
S315080087C02E44AE4205D1236E012120469B68984768
S315080087D057E094F89A30002B41D0207D0AF0ECF946
S315080087E02046FEF75FFC8146207D0AF007FAB9F1BC
S315080087F0000F34D1EFF3118988F31188207D0AF030
S31508008800DBF92046FDF725FFD4F848B000F1FF3A1A
S31508008810DA4538BFE36C207D3CBF03F1FF330BEB31
S31508008820030A94F8543001930AF0E8F9019B93B9C6
S315080088305346D4F89C1099420BD013F80129112AF3
S3150800884001D0132A21D1A2F111035A425A4184F8C0
S31508008850A020C4F89CA089F31188BFF36F8F94F801
S31508008860A030002BADD0236EA9462A785B689FB945
S31508008870236E20465B6899F8001001359847002852
S315080088809FD0002003B0BDE8F08F9B4582BFE36C04
S3150800889003F1FF335B44CEE70A2AE9D10D212046CE
S315080088A098470028E4D0ECE70E20EBE70346416042
S315080088B0EFF3108072B6044AD2F8C8111960C2F8EC
S315080088C0C8312CF016B800BF402C002038B50F4C24
S315080088D0D4F838327BB901234FF06042C4F83832F5
S315080088E0D2F8003E0A4943F48073C2F8003E04F504
S315080088F00F70FFF7DBFF0025064B0748C4F8483220
S31508008900C4F8505221F0ECF9284638BD402C002016
S31508008910C84100209F640008842E00200146EFF31A
S31508008920108072B6084AD2F8C83102F5E4722BB143
S31508008930994205D10B68136000230B602BF0D9BF51
S315080089401A461B68F3E700BF402C00200246EFF3E7
S31508008950108072B60B4991F85432FF2B02D172B1CE
S315080089602BF0C7BF1BB9002AFAD0012203E0002A60
S315080089700CBFFF220122134481F85432F0E71A464D
S31508008980F9E700BF402C002070B5002501230446F6
S31508008990294640F2E7308CB08DF80F300C4B4FF477
S315080089A07A72D3F89C610023E6FB040128F026FCC2
S315080089B0CDE900550146074A0DF10F0304A82AF030
S315080089C063FD18B99DF80F30002BFBD10CB070BDB4
S315080089D0402C00203549030838B50446D0F8A420B1
S315080089E093695906FCD5002394F8AD101A4694F8F5
S315080089F0AC000BF0BFFE002394F8AF101A4694F8AB
S31508008A00AE000BF0B7FE94F8B430DA0707D50023AA
S31508008A1094F8B1101A4694F8B0000BF0ABFE94F82F
S31508008A20B4309B0707D5002394F8B3101A4694F878
S31508008A30B2000BF09FFE0122D4F8A430002503F5FE
S31508008A40005103F58050CA6442600A205861D4F880
S31508008A50A8005D614A6029460BF0BEFF284638BD6E
S31508008A602DE9F0410468054694F89460002E62D119
S31508008A70EFF31183302282F31188C4E9166683F373
S31508008A801188BFF36F8FFFF79DFA854202D13046F2
S31508008A9021F026F9236E294F93F910603046FEF728
S31508008AA0C7FA3046FDF718FC236E93F91160304675
S31508008AB0FEF7BEFA3046FDF70FFC3B78207D43B142
S31508008AC0072806D81E4B03EB00131B7B0BB10DF0D2
S31508008AD003FA207D21F0A2F8EFF31188302383F3FF
S31508008AE011880023164A167BAEB90133082B02F10A
S31508008AF01002F8D12320FDF7EFFBFF22114B314678
S31508008B005E6520209A625E600BF066FF3146212082
S31508008B100BF062FF3E7088F31188BFF36F8F002356
S31508008B20C5E90033C5E90533EB60236E2046BDE889
S31508008B30F041DB6818470F20BDE8F081EC140020EF
S31508008B4070110020000004502DE9F843EFF3118757
S31508008B50302383F31188334E96F86352002D5AD189
S31508008B603148F5603560C6F834522BF09CFFBFF3E8
S31508008B704F8F2E4C0DF07CFB6368012B38D0E560D7
S31508008B802BF0B8FD4FF000090F220124284B274D82
S31508008B90DFF8A480C5F848905A641A640DF068FB9B
S31508008BA0C8F804402C612AF0D5F94FF40022214B6D
S31508008BB0C5F818905320C3F88821FEF747FAC8F875
S31508008BC04440EFF31185302383F311884FF4E060B6
S31508008BD00CF00EF985F31188BFF36F8FC6F89C0168
S31508008BE0B8B987F31188BFF36F8F2320BDE8F883E0
S31508008BF0D4F80480B8F1010F02D00DF039FBBEE7B6
S31508008C0063682AF0A7F902232361094BC3F8048095
S31508008C10F3E786F8634287F31188BFF36F8F002066
S31508008C20E4E700BF402C0020989E030800C00A50C5
S31508008C3000E00A5000E100E000D00A500CB44FF4FE
S31508008C408A73C340DB0713B50C460CD5084B9B6BE0
S31508008C50184208D005A90498019106F049FA14B1FA
S31508008C60044806F035FA02B0BDE8104002B0704775
S31508008C709C4100203C560308064B10B5D3F8640205
S31508008C8029F077FBBDE81040034601210220024A7D
S31508008C90D4E700BF402C00203E56030813B5D0E9A0
S31508008CA0023253F822301C78084B2146D3F8640266
S31508008CB029F07BFB003818BF0120234600900121CC
S31508008CC00220034AFFF7BAFF02B010BD402C00206D
S31508008CD0525603082DE9F04F0024FF238FB00D22CA
S31508008CE0214609A88DF8173008942AF060F8102351
S31508008CF07F2108AA41F2100021F020FC21462246D5
S31508008D0008AB13F8010B0131FF28C9B208BF03F8F5
S31508008D10012C1029F5D1002501210220934A08AB20
S31508008D208DF83050FFF78AFF41F24903904A012136
S31508008D300220FFF783FF06A804F0C2FC08A90DF17C
S31508008D40170012F041F929468A4A0220FFF776FFF2
S31508008D5006A806F051FE9DF92A300121864A02200E
S31508008D6000939DF82B30FFF769FFBDF8284004F003
S31508008D7089FC23462946814A00900220FFF75EFFB8
S31508008D8029467F4A0220FFF759FF7E4C08A806F0BD
S31508008D9033FE012102207C4AFFF750FF94F969321D
S31508008DA001210093794B0220B3F86830784AFFF71F
S31508008DB045FF1CF01DFB29460220764AFFF73EFFB9
S31508008DC09DF81730FF2B64D029460220724AFFF718
S31508008DD035FF012102206C4AFFF730FF6F4B012156
S31508008DE01B786F4A0220FFF729FF04F03BFC6D4A07
S31508008DF0034600210220FFF721FF07F059F86A4EC3
S31508008E00D4F86C32326805469A4204D34FF48A7114
S31508008E1066482AF0FFF93368D4F86C220121D21A81
S31508008E2022F0010292B22B4602200092604AFFF716
S31508008E3005FF0121022094F898315E4AFFF7FEFEED
S31508008E4000265D4F94F89831F2B2934227D8012351
S31508008E5002201946594AFFF7F1FE594B01210093A2
S31508008E6002200023574AFFF7E9FED4F874326BB1A3
S31508008E70012102201B78544AFFF7E0FED4F8743229
S31508008E80012102205B78514AFFF7D8FE0FB0BDE8F2
S31508008E90F08F294602204E4AFFF7D0FE99E71501C2
S31508008EA004EB021292F8889192F89531DFF83C812A
S31508008EB013F0010F48460CBFBB46C346D2F890A133
S31508008EC004F0CEFC40BB94F87032002B0CBF3A4637
S31508008ED042464B4600210220CDE900B23D4AFFF743
S31508008EE0ADFE631993F88E2101210292B3F88C2105
S31508008EF002200192B3F88A214FF00008009293F8F5
S31508008F009431354AFFF79AFE9AF804305FFA88F5E5
S31508008F10AB4203D8013695E73A46DAE714235D43B0
S31508008F20DAF800902D4939F8052009EB050B9BF96D
S31508008F300C3000922A4A022032EA230228BF0A4647
S31508008F4000211346274AFFF779FE584604F0D4FB5A
S31508008F5039F805500146284606F024FE012102206C
S31508008F60214AFFF76BFE08F10108CDE7935603087F
S31508008F70A2560308BE560308C5560308DA56030860
S31508008F80FA560308402C002044570308581E0020B0
S31508008F9003570308255703085DBA0308591C002020
S31508008FA03057030846570308101F00205C5703086C
S31508008FB0705703088657030872560308FF570308B5
S31508008FC0175803080B580308255803083958030887
S31508008FD0F54A030891570308B15703087B56030857
S31508008FE087560308E7570308114D03086A5603080E
S31508008FF0F7B50024104D114E114F95F89821E3B29C
S315080090009A4201D803B0F0BD05EB031393F89521F6
S31508009010002112F0010F0CBF32463A460092022098
S3150800902093F88831074AFFF709FE01210220064A0C
S31508009030FFF704FE0134E0E7402C00208DBF03084B
S3150800904083BF030854580308114D0308D0E90232B8
S31508009050114853F822205B6811781A7890F89831ED
S315080090605BB190F888318B4207D1652A90F8953123
S3150800907007D0002380F89531704701210220074A5E
S31508009080DCE543F00102DB0780F8952100D570473F
S3150800909000F5C47004F07FBD402C00205F5803081B
S315080090A000210220004AC9E5795803080021022058
S315080090B0004AC3E5A758030830B5044689B0182204
S315080090C0002102A829F073FED4E9022052F82030C4
S315080090D002EB80021B788DF81330516891F9001065
S315080090E08DF8121091680D886168ADF81050091A4C
S315080090F0032907DDD26803F01F03127843EA4213F7
S315080091008DF813303C4BD3F87432002B6FD01C7893
S315080091103A4A9DF81330012C4FF000003849009563
S3150800912008BF022405F0F2FF0122364B83F83C20E3
S315080091309DF81430002B43D010F00AFE214602AAEF
S315080091401CF09EFC044698BB9DF81430032B3AD1BC
S31508009150082102460DEB010010F0DCFC002848D17E
S3150800916010F0F6FD22464FF6FF7111F025FE9DF828
S31508009170181002A812F031F9079ABDF816109DF8D2
S31508009180180012F01BF9204B1B78012B0ED11F4B30
S315080091901B785BB116F0B6F81D4B1B685B0605D449
S315080091A02346214620461B4A15F096FD11F054FF2A
S315080091B0234600210220184AFFF740FD09B030BDBA
S315080091C04FF6FE70BAE702A811F002FB0121134B15
S315080091D003229C81124B062093F85830994011F0CF
S315080091E08FFB0028E4D00F4B1C700446E0E70224EE
S315080091F0DEE70124DCE700BF402C0020C358030843
S31508009200C85803089C410020081B0020591C002050
S315080092105C1B0020611C0020E5580308601B002029
S31508009220581E0020AC14002007B5FF224FF6FF7128
S31508009230002012F025FC00210090044B0220044A6D
S31508009240FFF7FCFC03B05DF804FB00BFF258030807
S31508009250F858030813B5D0E9023253F8221003EB85
S3150800926082035B68087819680023094CA222994290
S3150800927008BF2146C01A18BF012011F064FC01215D
S315080092800090044B0420044AFFF7D8FC02B010BD36
S3150800929000F8FF07A8C50308D959030813B5D0E98C
S315080092A0023203EB820153F82230D1E9011418780F
S315080092B0FF22003818BF01202378096811F043FC03
S315080092C001210090034B0420034AFFF7B7FC02B0C4
S315080092D010BD00BF03590308D959030810B5094C36
S315080092E0002122461CF070F80749002006F0EEF926
S315080092F0204606F081FBBDE8104001210420034A00
S315080093009CE400BFB82E002018590308114D030825
S315080093100C4B10B51B787BB10B4806F0F8FF4FF4E1
S315080093207A73B0FBF3F313F0FF0305D0BDE81040E2
S3150800933001210420054A81E40121BDE810400420EA
S31508009340034A7BE4401400204414002026590308ED
S31508009350375903080E2301210220014A6EE400BF93
S31508009360425903080E2301210220014A66E400BF80
S315080093705859030837B5D0E90232012453F8223088
S315080093804FF6FF701D78FE2204FA05F1002317F048
S31508009390C9FE2B46009021460420024AFFF74EFCE0
S315080093A003B030BD6C590308D0E9023253F82230B5
S315080093B01B781BB101210220024A3FE4024A1370BE
S315080093C0704700BF8B5903086825002010B58AB07E
S315080093D002A804F075F904F055F90F4A034601216D
S315080093E00220FFF72BFC02A806F006FB4FF6FF73D8
S315080093F00A4C62889A4207D104A90DF1070011F0B8
S31508009400E3FDBDF818306380012102206388044A11
S315080094100AB0BDE8104011E4A15903083814002029
S31508009420BB59030807B50220054B01210093054ADD
S31508009430054B0190FFF702FC03B05DF804FB00BF83
S31508009440E3590308CC5903088D8D030807B5022094
S31508009450054B01210093054A054B0190FFF7EEFBEA
S3150800946003B05DF804FB00BFE3590308CC590308B1
S315080094709D8D0308D0E9023253F8223008491B783B
S31508009480084A042082F83D30B1F8802222F003020F
S315080094901343A1F88032044A0121FFF7CFBB00BF6E
S315080094A0402C00209C410020F7590308D0E90232DD
S315080094B053F8223001211A88024B0420DA87024A1F
S315080094C0FFF7BCBB9C410020135A030873B5037809
S315080094D0044613F0050F0ED04588062D17D183686C
S315080094E001215B68174A1B7801938388042000933F
S315080094F0154BFFF7A3FB2378012B20D0012104206D
S31508009500114B124A02B0BDE87040FFF797BB35B958
S315080095108388012104200E4AFFF790FBEBE7012D13
S31508009520E9D186680B49002006F0D0F8304606F0E7
S3150800953063FA29460420084AFFF780FBDBE702B0F6
S3150800954070BD00BF4C5A0308435A03089E5A0308C5
S31508009550695A0308865A0308114D03082DE9F04194
S31508009560334D8EB009AC0FCD0FC42B680121236093
S31508009570002402202F4AFFF761FB25462E4E2F4F67
S31508009580DFF8CC8005A9E0B215F04EFF03460028A7
S3150800959047D19DF81430032B34D904238DF81430A1
S315080095A023463A4600210220FFF748FB9DF814306F
S315080095B00EAA02EB830300214246022053F8143C0C
S315080095C0FFF73CFB1E4B002133F814301D4A03936A
S315080095D0BDF81630022002939DF818300135019324
S315080095E09DF81530EDB200939DF82130FFF726FB64
S315080095F00DF1190006F000FA00210220124AFFF7C1
S315080096001DFB01E0002BCBD101340A2CBAD12B4625
S31508009610012102200D4A0094FFF710FB0EB0BDE8A9
S31508009620F081324600210220FFF708FBECE700BF75
S315080096309C9E0308B05A0308095B0308DD5A030811
S31508009640C22E0020E25A0308E65403082E5B0308DC
S3150800965066620308C3688268013BDBB252F82330AE
S3150800966002201B78652B14BF00220121054B1BBF66
S31508009670012183F84020044A044A08BF83F84010B1
S31508009680FFF7DCBA9C410020455B0308535B0308DF
S31508009690002370B58EB0009309AA1223022104464E
S315080096A004F01CFB364B03AA03931546042312F851
S315080096B0011B884245D0013B13F0FF03F7D1314A1D
S315080096C03AE038325BBA6A449BB212F8142C92FA22
S315080096D0A2F283EA1263C3F3031253401A0392B247
S315080096E05A405B0103F4FF53534032468A4202F163
S315080096F00106E6DBDAB21B0A92FAA2F293FAA3F3A0
S31508009700120E1B0E03EB0223DB4300F138026A44F8
S3150800971012F8166C99B2DBB29E420CD112F8153CBF
S31508009720B3EB112F07D105AA09A915F0ABF906461F
S31508009730B0B123280AD1144A01210420FFF77EFA82
S315080097400CE000224FF6FF73811ECFE72128B6D022
S315080097500346012104200D4AFFF770FA0EB070BDCA
S315080097602A46012120461BF02FFE324605A9284627
S3150800977007F0EEFB0146064806F092F8054ADBE7D5
S31508009780080A0E12855B0308625B0308C05B0308C0
S31508009790E15B0308114D03082DE9F041D0E90253B6
S315080097A055F8232005EB8305AB6807461E7886B077
S315080097B0304692F8008004F0E6F90446C8B9012359
S315080097C08DF808306B6804211B888DF80960ADF8A0
S315080097D00A30EB680DF10D021B7838468DF80C300F
S315080097E01BF0F2FD404602A98DF8154016F092F9D5
S315080097F00446434601210420034A0094FFF71EFA53
S3150800980006B0BDE8F08100BFF65B030830B5044634
S3150800981099B00EA804F05CFB01210220264AFFF746
S315080098200DFA14B9002019B030BD022513A804F0AA
S315080098304FFB0AA913A88DF84C5005F0BBF804464F
S315080098400028EFD102A913A804F082FB9DF859302D
S315080098501A4A43F00103214628468DF85930FFF786
S31508009860EDF99DF8593006A943F0010313A88DF8C0
S31508009870593004F06DFB14A806F0BEF8089B214683
S3150800988028460F4AFFF7DAF9BDF81820214612F4E0
S31508009890007F14BF41234C2312F0100F0CBF6E2219
S315080098A0792228460092074AFFF7C8F90AA806F05F
S315080098B0C1F80120B7E700BF0A5C03083F5C03084C
S315080098C0465C03084F5C030805232DE9F041012493
S315080098D09CB0012102206F4A00936F4BFFF7AEF947
S315080098E012A804F0F5FA17A88DF8484015F08CF977
S315080098F0C0B9BDF85C1011EA040513D1214602204F
S31508009900664AFFF79BF929460220654AFFF796F94A
S3150800991021460220614AFFF791F9214602205F4A53
S31508009920FFF78CF906A912A805F044F820B1102211
S31508009930FF2106A829F03BFA04A81FF09BFE059B09
S3150800994001210220574A0093574BFFF777F99DF8F4
S31508009950123001210220554A0093534BFFF76EF946
S315080099600021514B524A0220FFF768F906A806F073
S3150800997061F817A804F0ACFA02230EA917A88DF807
S315080099805C3004F0E5FA00284ED10F9B0121022035
S31508009990484A0093484BFFF751F90121464B474A7D
S315080099A00220FFF74BF90120FFF730FF0121424B58
S315080099B0434A0220FFF742F90020FFF727FF002558
S315080099C00346012102203F4A0095FFF737F93E4B2F
S315080099D0012102203A4AFFF731F9012102203B4AC8
S315080099E0FFF72CF928460EAB0AAA17A905F094F832
S315080099F00446374E374FDFF8F880EBB20135B4B17D
S31508009A0035493648022B364A28BF0A46234928BF15
S31508009A1001460092CDE9013102200121314AFFF7C2
S31508009A200DF91CB0BDE8F0814FF0FF33AEE72146D3
S31508009A3032460220FFF702F918A805F0DDFF214695
S31508009A403A4602209DF86830FFF7F8F82146424664
S31508009A500220109BFFF7F2F821460220BDF8443099
S31508009A60214AFFF7EBF82146BDF838301F4A022095
S31508009A70FFF7E4F80AA805F0DDFF01210220074AEE
S31508009A80FFF7DCF80EAB0AAA17A9E8B205F044F806
S31508009A900446B2E7695C0308625C0308114D0308D3
S31508009AA0805C0308BE5C0308B65C0308CE5C03084A
S31508009AB0E15C0308E65C03089CBB0308F65C030844
S31508009AC0FD5C0308065D03081A5D0308285D0308A4
S31508009AD06E5D0308765D03085E5C0308676203082B
S31508009AE06E8E03088C5D0308C5590308825D03085A
S31508009AF0465C03080E2307B50193D0E9023253F8F2
S31508009B00223001211B7802200093034A034BFFF7FA
S31508009B1095F803B05DF804FBB45D030853520308D7
S31508009B2073B5154D01242B78144E13F0040F0CBF92
S31508009B30022204223188124B022083F898420191AE
S31508009B40AA5C21460092B3F820320E4AFFF776F84F
S31508009B50002102200C4AFFF771F822462846318870
S31508009B600A4B1BF079FD21460220094A02B0BDE8DE
S31508009B707040FFF763B800BF5C1700205A17002033
S31508009B80402C0020CB5D0308F05D03087B5C0308CE
S31508009B90114D030810B5D0E90232044653F82230B5
S31508009BA0132219880B4B9879FEF79AF9E368A2688D
S31508009BB0013352F823301878FEF7CCF9E368A26827
S31508009BC0023352F823301878FEF7C4F9BDE810407E
S31508009BD0A6E700BF402C002010B5D0E902320446A3
S31508009BE053F82230112219880B4B9879FEF778F929
S31508009BF0E368A268013352F823301878FEF7AAF909
S31508009C00E368A268023352F823301878FEF7A2F9FF
S31508009C10BDE8104084E700BF402C002010B5D0E90D
S31508009C20023253F82230044619880D4B06229879D9
S31508009C30FEF756F90120FEF78DF9E368A26803449A
S31508009C4052F823301888FEF791F9E368A2680233C0
S31508009C5052F823301888FEF789F9BDE810405FE707
S31508009C60402C00202DE9F0430446E368A26802333D
S31508009C7052F8233008461E78214685B0FEF77FF94C
S31508009C80A6F14103032B234D234F32D8433E012E21
S31508009C908CBF01260226032103AA20460DF082F86E
S31508009CA02A880399C2F152039B1B9BB28B4232440A
S31508009CB03CBFC2F1520303930123DDF80C80032154
S31508009CC05FFA88F900933A444B46204604F006F8B2
S31508009CD0022E2A8804BF11494FEA182307F8029072
S31508009CE008BF8B54424416442E8005B0BDE8F043A5
S31508009CF016E7304603F0EAFC012306462A880321C4
S31508009D0000933A440346204603F0E8FF2B881E4496
S31508009D10EAE700BF5A1700205C1700205D170020ED
S31508009D2002219FE703219DE705219BE708B5014628
S31508009D300C20FEF724F9BDE80840F1E608B501460F
S31508009D400020FEF71CF9BDE80840E9E610B5D0E9A1
S31508009D500232044653F82230082219880B4B9879A8
S31508009D60FEF7BEF8E368A268023352F82330187883
S31508009D70FEF7F0F8E368A268013352F82330188832
S31508009D80FEF7F4F8BDE81040CAE600BF402C0020F4
S31508009D9073B5D0E902320446023253F8221003EBB7
S31508009DA0820353F8042C53F8083C0D781988274B7E
S31508009DB0168898790622FEF793F80020FEF7CAF867
S31508009DC03046FEF7D3F82846FEF7C4F8E368A268DB
S31508009DD0033352F823301888FEF7C8F8E368A268F8
S31508009DE0043352F823301888FEF7C0F800231848C1
S31508009DF0C21892F86411A94217D392F8653103BBC9
S31508009E00284603F063FC0521054601AA20460CF006
S31508009E10C9FF019B01469D420AD02A4631460D4894
S31508009E2002B0BDE8704005F02BB90233DBB2DFE7BC
S31508009E30094C0A4826882A463044354428F0CCFF7F
S31508009E40258002B0BDE870406AE600BF402C0020BD
S31508009E504C9D0308F95D03085A1700205C1700207B
S31508009E6037B5D0E9023253F82230144D1B884FF427
S31508009E708A52A5F820320023114C0121A5F8242284
S31508009E8000932246522303F029FF237813F0040F88
S31508009E9095F899320CBF012103214BB1094A92F872
S31508009EA02A300133DBB282F82A3003F07F03635489
S31508009EB0054B188003B0BDE8304031E6402C002041
S31508009EC05C1700209C4100205A17002070B5424CB0
S31508009ED088B094F898323BB9012102203F4A08B06D
S31508009EE0BDE87040FEF7AABED0E9023253F8223028
S31508009EF001211D78B4F8203202200093384A2B46F7
S31508009F00FEF79CFE84F82252E579364E002D37D0AE
S31508009F1001210220344AFEF791FE368866B10025F3
S31508009F2004A9E8B215F080FA30B99DF810000328A4
S31508009F3004D001350A2DF3D108B070BD9DF8112063
S31508009F4094F822329A42F4D1BDF81220B4F820329D
S31508009F509A42EED19DF814304FF6FF7284F82332F8
S31508009F600123BDF81510A4F82612CDE901321F4BBE
S31508009F701F4A009333461EF003F80028D9D0DBE7C2
S31508009F80368804A9E8B215F04FFA0028D4D19DF80E
S31508009F901030012B03D001350A2DF2D1CCE79DF8FC
S31508009FA0112094F822329A42F5D1BDF81220B4F85D
S31508009FB020329A42EFD19DF814300D4A84F82332A4
S31508009FC00A4BCDE90100009302203346A9B21DF0E1
S31508009FD0D7FF0028DFD0AFE7402C0020445E0308F7
S31508009FE0525E03085A170020695E03085C170020B2
S31508009FF05E2E00207FB5D0E90213406851F8232071
S3150800A000C01A01EB83040228C8BFA068158803F1AB
S3150800A010FF3362682A4CDBB251F8236094F8983211
S3150800A020D8BFFF201278C8BF00783BB901210220AB
S3150800A030244A04B0BDE87040FEF700BE0AB994F899
S3150800A040882184F8222284F8230203F01BFB327944
S3150800A0501D4B5F2A1B881D4A1CD101214FF6FF762E
S3150800A060A4F826520320CDE9011629460092184A7B
S3150800A0701DF086FF28B1034601210220154AFEF786
S3150800A080DDFD002384F89832A4F82A3284F82C32AD
S3150800A09004B070BD4FF6FB718D4209D901214FF608
S3150800A0A0FF700092CDE90110094A29460620DFE72C
S3150800A0B0002000922946CDE90100054AD8E700BFED
S3150800A0C0402C0020835E03085A1700205C170020E6
S3150800A0D05E2E00208A5E0308002210B50A21044677
S3150800A0E01046FDF7FDFE1046FDF740FF0122044B22
S3150800A0F083F89A22FFF714FD2046BDE8104079E759
S3150800A100402C00202DE9F041D0E9023253F8221004
S3150800A11003EB82035A680C7817889A68DB68B2F8EA
S3150800A12000801D7886B000210220CDE90178314BE8
S3150800A130314A0094FEF782FD002D34D0792301219F
S3150800A14002202E4AFEF77AFD40230DF113020392F0
S3150800A1500026042205AD204602923946424601955C
S3150800A160009605F009FA044600283BD19DF813002D
S3150800A170A0F14103012B1ED89DF814303246FF2B5F
S3150800A18018BF1C46022CA8BF02241D4BA1B20DF114
S3150800A19015001BF061FA012102201A4AFEF74EFD4E
S3150800A1A006B0BDE8F0816E2301210220134AFEF7AE
S3150800A1B045FD8023C9E7A0F14303012B0BD82846A8
S3150800A1C003F05BFC0228A8BF0220224681B20C4B92
S3150800A1D00DF11600DDE703F079FA012201460A4B74
S3150800A1E02846D6E7009001210220084B084AFEF7C8
S3150800A1F025FDD5E7C4780308B15E0308D65E0308D3
S3150800A200DD5E0308114D03087B5C0308F597030818
S3150800A210E05E03082DE9F04FD0E90232002653F834
S3150800A220221003EB82035A680F78B2F800809A6806
S3150800A23089B0B2F80090DA681B6992F800A01D7818
S3150800A24000212F4B2F4A0446CDE9018902200097A9
S3150800A250FEF7F4FCBAF1000F14BF79236E2301212F
S3150800A2600220294A0095FEF7E9FCA5F14103012BD6
S3150800A2700DF11C0B079626D80223052120460096C9
S3150800A2800DF11D0203F02AFD8DF81C0000230124A0
S3150800A290BAF1000FCDE9034300934A460CBF802369
S3150800A2A0402341463846CDE901B51BF06BFA014615
S3150800A2B0134805F0F5FA21460220144AFEF7BEFCBB
S3150800A2C009B0BDE8F08FA5F14303012B0CD8022392
S3150800A2D00521204600960DF11E0203F0FFFC8DF8BD
S3150800A2E01D608DF81C00D1E7284603F0EFF95A46A1
S3150800A2F0034605212046009603F0F0FCC6E700BF9A
S3150800A300B7780308B15E0308F15E0308114D030828
S3150800A3100A4A92F8983223B101210820084AFEF722
S3150800A3208DBCD0E9023153F8213008201B88012161
S3150800A330A2F82A32034AFEF781BC00BF402C00204F
S3150800A3400A5F03084C5F0308D0E9023253F822304B
S3150800A350054A1B780121003B18BF0123082082F813
S3150800A3609932024AFEF76ABC402C0020725F030845
S3150800A370D0E9023253F82230044A1B78012182F8C8
S3150800A3802C320820024AFEF759BC00BF402C002098
S3150800A390A15F03082DE9F041D0E90232013253F8F2
S3150800A3A0221003EB82035A6886B017889A6853F816
S3150800A3B0043C147818780DF113030D884FF0020841
S3150800A3C003930023002C05AE00933A460CBF802366
S3150800A3D040232946CDF80880019605F0CDF80346B6
S3150800A3E038B1184A01210820FEF728FC06B0BDE856
S3150800A3F0F081201E18BF01200A222946C000FDF759
S3150800A4006FFD3846FDF7B2FD9DF81300FDF7A2FD76
S3150800A4104246314603F03CFB044628B10A4F3D88C4
S3150800A420C5F15203984202DD2346084ADAE7024696
S3150800A430074831462844254428F0C1FC3D80FFF7EB
S3150800A4406FFBD3E7D75F03085A170020F35F0308AB
S3150800A4505C1700201FB5D0E90232042453F82210F5
S3150800A46003EB82035B6808881B78020A21468DF88D
S3150800A4700E208DF80F304FF48A5203AB00948DF8F6
S3150800A4800D0003F075FC012103462046024A04B07C
S3150800A490BDE81040FEF7D2BB1F600308D0E90232C0
S3150800A4A053F8223002214FF48A5210B5188803F067
S3150800A4B071FCBDE81040034601210420014AFEF75D
S3150800A4C0BDBB00BF3860030807B5D0E902300E4AA5
S3150800A4D003EB800153F820304968188802F2A62356
S3150800A4E00988019392F86331009302F5277392F86D
S3150800A4F062211AF01BFF012103460420034A03B018
S3150800A5005DF804EBFEF79ABB402C00204F60030869
S3150800A51038B515461A461C461AF056FF28B921467C
S3150800A52028460FF0DFFE044610B90024204638BD41
S3150800A53001210420014AFEF781FBF7E7676003085B
S3150800A5402DE9F041D0E9023253F8221003EB8203D9
S3150800A5505A680D8892F800809A68DB688CB016787D
S3150800A5601F882A46042104AB0446FFF7D1FF88BB9F
S3150800A5700521204602AA1AF027FF38B9042001212E
S3150800A580164AFEF75BFB02A803F09AF804AB03CB66
S3150800A59003238DF8243002ABCDF81900CDF81D1031
S3150800A5A003CB16234FF48A52CDF82500CDF829108F
S3150800A5B00093212106AB28468DF82180ADF822703C
S3150800A5C08DF82D6003F0D4FB01210346044A0420CC
S3150800A5D0FEF734FB0CB0BDE8F08100BFA5600308A8
S3150800A5E0D460030838B5D0E9024303F18043023B3F
S3150800A5F054F82300022212499D0028F0C8FB114B8B
S3150800A60078B993F8622103F5B17103F52773042A23
S3150800A6100ED82C44A068008823F8120001320A706C
S3150800A62038BD93F8632103F2631103F2A623EEE71C
S3150800A6300121BDE838400420034AFEF7FFBA00BFEF
S3150800A640CE620308402C0020E660030837B5D0E93F
S3150800A650023153F821208D0014784268521A012AD3
S3150800A66007DD2B445B6818781D2813D11D20082C9C
S3150800A67008E0600940F018001D2804F01F04F5D012
S3150800A6800AD91A2C0AD80121A1400023FE2241EA40
S3150800A690C06119E00BD878B11C28F2D00346012115
S3150800A6A00420104A0094FEF7C9FA03B030BDA0F1A1
S3150800A6B01E03012BF2D8E4E7A4F10B030F2BEDD808
S3150800A6C001210346FE22A1404FF6FF7016F02AFD2F
S3150800A6D0012103460420044A03B0BDE83040FEF7D2
S3150800A6E0ADBA00BFFC6003081C61030870B5D0E969
S3150800A6F0021551F8253001EB8501044618884B6888
S3150800A7001A788B68052A1B8802D85E1E072E0BD975
S3150800A710012104200C4AFEF791FABDE87040012198
S3150800A72004200A4AFEF78ABA6468641B032CCABF67
S3150800A730C9680749096816F0F5FCBDE87040024685
S3150800A7400449002004F0C2BF3A6103085A610308AD
S3150800A75000F8FF077761030810B5D0E9023253F80D
S3150800A760221003EB82039B6888B01B780C88003B99
S3150800A77018BF0123DB018DF81D300A230E4903AAF1
S3150800A780D1F87601D1F87A1103C203AA03CA009355
S3150800A790CDF815001346CDF819104022342120466D
S3150800A7A003F0E6FA01210090044B0420044AFEF760
S3150800A7B045FA08B010BD00BF4C9D03088A6103081E
S3150800A7C09461030807B5D0E9023253F82230032111
S3150800A7D04022188803F0DEFA01210090034B04207A
S3150800A7E0034AFEF72BFA03B05DF804FB8A610308F7
S3150800A7F0A36103082DE9F0430C4615461F46D0E928
S3150800A800022352F8231002EB830293680E8893F80A
S3150800A8100080D3688DB0B3F800903246012104ABAE
S3150800A820FFF776FE68BB7CB301232D8804AA012BAB
S3150800A83003CA8DF82180CDF81900CDF81D10ADF8A2
S3150800A84022908DF8243026D002AB03CB1623CDF800
S3150800A8502500CDF829108DF82D704022222100936D
S3150800A860304606AB03F084FA0E4B0F4A00930F4BA3
S3150800A8700190002C08BF1346012104200C4AFEF75C
S3150800A880DDF90DB0BDE8F0832868696802AB03C33B
S3150800A89025460323CAE78DF825502D0A0F238DF880
S3150800A8A02650DAE78A610308C3610308BD61030815
S3150800A8B0CB61030807B5C2688368043253F82230AF
S3150800A8C001211B880DF10602ADF806300023FFF7BB
S3150800A8D091FF03B05DF804FB37B5C368826805339A
S3150800A8E052F8233004216A4604461D781AF06CFD96
S3150800A8F038B904200121074AFEF7A0F9684602F094
S3150800A900DFFE2B466A4600212046FFF773FF03B099
S3150800A91030BD00BFDE6103081FB5D0E9023253F827
S3150800A920221003EB82035B6808881B7840228DF8A7
S3150800A9300D3002233221009303AB03F019FA0121EB
S3150800A9400090044B0420044AFEF778F905B05DF838
S3150800A95004FB00BF8A6103080F6203080D4B70B53C
S3150800A960DB790D4D0D4C0121002B0CBF2B462346E0
S3150800A97002200B4AFEF762F90A4B012193F8B0321E
S3150800A9800220002B0CBF2B462346BDE87040064A22
S3150800A990FEF754B99C410020286203082462030884
S3150800A9A02B620308402C00204A62030810B5D0E940
S3150800A9B0023253F8223001211B780220002B15BFE2
S3150800A9C001240024034A044AFEF738F9034B83F8A6
S3150800A9D0B04210BD6962030886620308402C002055
S3150800A9E010B40A46D0E9023153F821301C784FF4E6
S3150800A9F08B73D34013F0010110D00B48836B4CB115
S3150800AA001A430A4B826300210220094A5DF8044B67
S3150800AA10FEF714B923EA0202064BF3E70220064AB8
S3150800AA205DF8044BFEF70AB99C4100206A560308F4
S3150800AA30A562030872560308BB6203080121CFE723
S3150800AA400221CDE70421CBE70821C9E71021C7E792
S3150800AA5000232DE9F04FB248B24AB34C121AC4E9A2
S3150800AA606802013AA5B0D20884F8BC31C4F8C431EA
S3150800AA70C4E96D00FCF764FF428008230122C4E99B
S3150800AA806A33C4F8B021EFF31183302181F31188BA
S3150800AA9094F8B112002940F0AA8384F8B12283F30E
S3150800AAA01188BFF36F8F6FF004021046013205213B
S3150800AAB052B2FCF7AAFA5D2AF7D14FF000490722ED
S3150800AAC04AF6CD37DFF88482984D994BC8F86490DA
S3150800AAD06E6C0B202F64DA630AF09CFD6B6895494F
S3150800AAE023F4F87343F480736B6040F20913AB6088
S3150800AAF040F203132B610023C8F864906A6C06F0D1
S3150800AB00010602F001022F64286B070740F17683DD
S3150800AB108B4240F07183854B002A40F082830EB148
S3150800AB20854A1A644FF00042844B804D5E6E03F5E9
S3150800AB3080535A664AF6CD336F6C80202B640AF030
S3150800AB4069FD2B6AF90723F00F0343F00C032B6208
S3150800AB5048BF794B7A4848BF2B64002EA2BF4FF0F6
S3150800AB600042784B5A6629F09EFF774AD2F84C3154
S3150800AB7013F4802300F058834FF07E6292F89C30DD
S3150800AB8092F99C20002AB8BF3F234FF400016F4A70
S3150800AB90022051664FF4D15102F5B83251626C4920
S3150800ABA04F2B486028BF4F23012001F58051DBB2A7
S3150800ABB04860116911F48031FBD143F48073536105
S3150800ABC040F201439360604B5160D3F84C21120365
S3150800ABD040F12D83A3F5FE431D88B5F5807F28BF78
S3150800ABE08C255C4BDFF89C8193F900605A4B2E4408
S3150800ABF0C8F80030514B86F308061B6F03F00703AD
S3150800AC00032B01D128F092F91AF02CFC03284BD01B
S3150800AC104FF480124D4B4FF0A0615A6645F60E036D
S3150800AC204E4AC2F880304E4B99624FF4803103F594
S3150800AC3080539962936DDB03FCD4936D5F00FCD45B
S3150800AC40484B1361936903F0004343EA064343EA1A
S3150800AC50052343F0407343F03C039361136A23F0E2
S3150800AC600F031362916A404B0B4043F4803393629F
S3150800AC703E493A4A936D31EA0303FBD14FF080719E
S3150800AC8037488162136923F4700343F44013136150
S3150800AC904FF000434FF480328361354B99629A62D4
S3150800ACA02E4A936D5800FCD44FF4C022264BD3F895
S3150800ACB09850264B5A6603F598335A68012A00F0CD
S3150800ACC0BA821AF0CFFB05280CD1002129480AF0D0
S3150800ACD03BF81A4A136F43F4806313674FF48032C4
S3150800ACE01A4B1A67244F254B3E6825F040759E423D
S3150800ACF002D820481EF0E0FF214BDA6812F0060F52
S3150800AD00FBD19A689D6099684D4015F4F81F0DBFF0
S3150800AD10184D9A6035463D601AF0A4FB052833E0C5
S3150800AD20A045002000000820402C00200080095083
S3150800AD300040005040420F003254FFFF0080005090
S3150800AD40989E030800A000500080E00F0090005075
S3150800AD50001002501D410020C01753020040005A3F
S3150800AD600050005A2008C00BC7FFFEFE0300010072
S3150800AD700060005A00B4C404D4400020FFB3C404E1
S3150800AD8000000150D84000201DD128F0CFF8074612
S3150800AD9009F016FE0128D4BF01210021384609F022
S3150800ADA0D3FF4FF4C0700AF023F8C849C84A88424E
S3150800ADB094BF00200120136F23F4806343EA8023A5
S3150800ADC013670AF017FCB54202D800201EF074FF7C
S3150800ADD04FF40022BF4DC04BC048D3F8C0306A6656
S3150800ADE04FF0B44223F04073936029F05CFE4FF4B1
S3150800ADF0800302226B66BA4B5A609A6812F4803254
S3150800AE000492FAD15A62049AB14D5A6002201EF091
S3150800AE101FFF2E6F0499C6F38026731CB14884F869
S3150800AE20B23209F091FF4FF480322B6F43F48063FE
S3150800AE302B67A84B1A672B6F23F0070343F003030E
S3150800AE402B6728F073F8074609F0BAFD0128D4BF26
S3150800AE5001210499384609F077FF00201EF02CFFDF
S3150800AE602B6F23F4806343EA86232B670AF0C2FB21
S3150800AE702B6F984923F474432B679B4BD3F8FC201C
S3150800AE8012F0807240F0DD81D5F8803023F003039C
S3150800AE9043F00103C5F88030C1F880208C4B4FF48D
S3150800AEA08031D3F82021914822F0070242F00202AD
S3150800AEB0C3F82021D3F8282122F0070242F0020223
S3150800AEC0C3F82821D3F8802122F0030242F00102B8
S3150800AED0C3F88021D3F8402122F0030242F002028F
S3150800AEE0C3F84021D3F8602122F0030242F002029F
S3150800AEF0C3F86021D3F8402222F0030242F002028E
S3150800AF00C3F84022D3F8002222F0070242F00202D8
S3150800AF10C3F80022D3F8082222F0070242F0020200
S3150800AF20C3F80822D3F8502222F0030242F00202A4
S3150800AF30C3F85022D3F8702222F0030242F001022D
S3150800AF40C3F87022D3F8202222F0070242F0010249
S3150800AF50C3F820225F4A5D6E5166426A22F00102FA
S3150800AF604262EA035CBF624A51664FF0E0210A6911
S3150800AF7042F004020A61D3F8602222F0070242F086
S3150800AF800102C3F86022D3F8942222F0070242F0A5
S3150800AF900102C3F89422EFF3108672B6554829F0D9
S3150800AFA082FD94F8B332544D002B40F08181FDF7B1
S3150800AFB0CBFD0746002800F05C81304629F099FC55
S3150800AFC0FDF7C2FD6A6D4FF40031561C04BF4B4BAA
S3150800AFD0D3F894204FF0502308BF6A65D407196741
S3150800AFE000F1068201210C46084604FA00F31340D4
S3150800AFF001F1010100F0FE81414B03EB4003B3F878
S3150800B00084324049062B0A8848883F4C40F01E8205
S3150800B0104FF20F03984240F0F181B2F5406F28BF16
S3150800B0204FF4C0624CF23C33A4F8BA224B802E4A45
S3150800B030536A43F470235362EFF308834FF0CD311C
S3150800B040324A043B934280F0118202222B4B1A6744
S3150800B050FDF77AFD18B16B212D4828F0DBF81CF0B6
S3150800B0608CF84FF4005027F0D5F84FF40053C4F885
S3150800B070BC02C4F8C032002800F0FB81D4F8BC3208
S3150800B0801BB9DE21234828F0C5F8D4F8BC22224B88
S3150800B0901A60D4F8C03223F001031344C4F86C32A2
S3150800B0A01E4B1A60002A40F0EF81F821194828F053
S3150800B0B0B1F80AF0B7FC0AF05DF8FDF745FD06465B
S3150800B0C0002856D1164829F0EEFC2BE080F0FA024B
S3150800B0D000800050009000500080E00FC89F0308D1
S3150800B0E00040025000B4C40400ED00E0000008501F
S3150800B0F000A00050C04E03089C41002000400050AC
S3150800B1004C9D0308183F0020402C00200800002012
S3150800B110E85403085C570308101F00200C1F002082
S3150800B120CC9F0308B74BB84A1A620222C3F83C21DF
S3150800B1304FF4167203F5EA239E64D4F89C31534300
S3150800B140B24A03F5742303F23F23B3FBF2F3B04A82
S3150800B150C4F81832D4F8EC31D4F81812013642F88B
S3150800B160041BF6B2D4F818120A2E0B44F4D1C4F80C
S3150800B170EC3194F8C51294F8C432022901D1072B90
S3150800B18019D0D80703D443F0010384F8C43294F8DD
S3150800B190C4329A075FBF012243F0020384F8C4321F
S3150800B1A084F8CC2894F8C42211B9D70700F13B8754
S3150800B1B0560740F14087FDF789FB96499648FDF703
S3150800B1C075FB0AF077F895F8682095F87830022A22
S3150800B1D000F26081002A40F06381022B00F26C8144
S3150800B1E0002B00F06C812B6FC4F8D83267E183F32B
S3150800B1F01188BFF36F8F60E4013385E48B423FF417
S3150800B2008AAC2021854B99620121A3F580535960A8
S3150800B210834B8449886A80063FF57DAC013BF9D1AA
S3150800B22079E4814A1A647AE4D2F85021ADE4D3F875
S3150800B2305051EDB2D5E47D494A605A689107FCD46D
S3150800B2403FE5D3F8FC2022F08072C3F8FC20D5F83D
S3150800B250802022F0030242F00102C5F88020002275
S3150800B260C1F88020D3F8FC2042F08072C3F8FC2095
S3150800B27014E66F4829F017FC624B6E4ADA61012220
S3150800B280C3F844214FF4807203F5EA239A64D4F88C
S3150800B2909C31C4F85872C4F8B432674BC4F8C87104
S3150800B2A05A6F42F001025A67DA6E22F03002DA6605
S3150800B2B04FF00009484684F8B8921EF0FDFC95F850
S3150800B2C05030D4F8B4729BB15B49D4F85C224B6F0A
S3150800B2D023F440734B67BB014C4903F5742303F20F
S3150800B2E03F23B3FBF1F31344C4F85C3285F850905E
S3150800B2F04FF48011514BD3F80021514A51664FF44F
S3150800B300003151661A6F4F4902F00702C4F8D0217E
S3150800B3108969032A01F00200C1F3400184F8CC11BF
S3150800B3200BD0D3F8202102F00702022A05D0D3F861
S3150800B330282102F00702022A17D1012384F8D43102
S3150800B34020BBD4F8B432314AC3EB431303F5742354
S3150800B35003F23F23B3FBF2F3D4F85C221344C4F898
S3150800B3605C32012384F8B33227E6002284F8D4211C
S3150800B3700028E6D0D3F8003103F0030303F1FF3CBD
S3150800B380DCF1000343EB0C0384F8D4312B4BD3F8E0
S3150800B390003103F00303022B25D0032B26D0012B03
S3150800B3A0CFD1D8F80020002ACBD0264BDFF85C8016
S3150800B3B0DB68501EC3F30B0C002319460CF1010C75
S3150800B3C00CEB8C0CECFB080125F018FF784300F514
S3150800B3D0742000F23F20B0FBF8F0D4F85C32184431
S3150800B3E0C4F85C02ADE74FF40042DEE7164ADCE734
S3150800B3F0002001E610297FF4F7AD02E64FF4C0629B
S3150800B40010E600BF00800350010E0C0040420F00FA
S3150800B410302E0020F4410020102F002000A00950F3
S3150800B42041420F00008009503254FFFF00E00150EE
S3150800B430CC9F0308010D0C0000400050008000500E
S3150800B4400090005000C0015080D5430240F2072604
S3150800B450B34208D14FF20F06B04204D19A4204BF54
S3150800B4604CF23C324A80A4F8BA32E0E543F80419B3
S3150800B470E8E540F29D110F4827F0CCFED4F8C0321B
S3150800B480002B3FF4FEADF9E504F012FD64287FF6C3
S3150800B4900CAE0EE6032A04BF2A6EC4F8D8229CE630
S3150800B4A0296E022BC4F8D81209D843B1022A06D04D
S3150800B4B099E600BFE0620308032B3FF494AEBF4F42
S3150800B4C04FF42F7200213846D4F8D86227F06FFC63
S3150800B4D080230122C7F88C30B94B87F88820C7F833
S3150800B4E0843095F88430C7F8B06233B9C5F880302F
S3150800B4F0B44B85F88420C7F89C304FF0FF36C7F860
S3150800B500B4621BF03AFE012026F0E3FE1FF078FD38
