S02B0000453A2F53696C61622F76355F776F726B73706163652F7A69676265655F6D696E696D616C2F7A6967CF
S3150800600008100020B16C010825A7020859170108D5
S31508006010591701082DA7020835A7020859170108BC
S31508006020591701085917010859170108591701087E
S3150800603039A70208784603085917010859170108AD
S31508006040591701085917010859170108591701085E
S31508006050591701085917010859170108591701084E
S31508006060591701085917010859170108591701083E
S31508006070591701085917010849160108E1150108B9
S31508006080591701085917010859170108591701081E
S31508006090591701085917010859170108591701080E
S315080060A059170108591701085917010859170108FE
S315080060B059170108591701085917010859170108EE
S315080060C0591701085917010859170108A91801088D
S315080060D0591701085917010859170108DD1701084A
S315080060E0B91701085917010859170108591701085E
S315080060F059170108D1FE0208710903086325030828
S315080061005F2503081901030879250308672503088D
S31508006110410903086B250308B1090308190A03088E
S31508006120591701085917010859170108591701087D
S31508006130ED7401085917010859170108591701087C
S31508006140591701085917010859170108591701085D
S31508006150591701085917010859170108591701084D
S31508006160591701085917010859170108591701083D
S31508006170591701085917010859170108591701082D
S31508006180591701085917010859170108C930030892
S3150800619081ED0208591701084F25030855250308FC
S315080061A059170108591701085917010859170108FD
S309080061B05917010864
S315080061B4F0B5114A114C124E00F00105E3695F0768
S315080061C413D40DB9334213D103EA00078F4207D11A
S315080061D40B4A1A40002A0CBF00206FF00100F0BDDC
S315080061E4013AEBD16FF00200F9E74FF0FF30F6E71A
S315080061F46FF00100F3E700BF809698000000035093
S31508006204020001002DE9F84F16464FF48032274B59
S31508006214274D9A66EB69074603EA020841F6713385
S315080062240122EB63234BDFF89490DA600EB930460B
S3150800623429E007F5005404EA09046F61E41BEB69D5
S31508006244B44228BF34465B072DD48B465BF8043B1F
S3150800625401EB040AAB61D3450ED1042300212120A6
S315080062642B61FFF7A5FF70B92120FFF7A1FF50B9ED
S3150800627459462744361BD9E708210846FFF798FFED
S3150800628468B104232B6101220B4BDA60B8F1000FC5
S3150800629403D00022A3F50053DA63BDE8F88F5BF850
S315080062A4043BAB61D7E74FF0FF30ECE700900050B2
S315080062B400000350001003500020035000E0FFFFC5
S315080062D0013800D0FCE770474BF6EF6283B2002B1B
S315080062E008BF1346044A000C13804FF6CE2308BF96
S315080062F018465080704700BF6440002070477047BA
S31508006300D0E9023253F822301A88014B9A80704736
S3150800631064400020C3688268013BDBB252F8233030
S315080063205B78652B03D10022064B1A7170476E2BDA
S3150800633002D10122034BF8E7662BF7D10222014B63
S31508006340F3E700BF30250020C3688268013BDBB253
S3150800635052F823305B78A3F1660253425341014A4F
S315080063609371704764400020D0E9023153F8212028
S3150800637003EB81031078034A5B6850711B789371AD
S31508006380704700BF3025002070477047024AD3790E
S3150800639043F00103D371704730250020D0E902325B
S315080063A053F82230034A1B78003B18BF0123DB0051
S315080063B01372704730250020D0E9023253F8223094
S315080063C0034A1B78003B18BF01235372704700BF6E
S315080063D030250020D0E9023253F82230034A1B78D0
S315080063E0003B18BF0123D371704700BF64400020EB
S315080063F0704770477047D0E9023253F822301A685E
S31508006400014B9A60704700BF64400020044B9A7B9A
S31508006410FF2A02BF1A7C02F00F029A73987B704714
S31508006420302500200123064AD11811F8011C8142A3
S3150800643001D1D05C704702335F2BF5D1002070473D
S315080064405C9D030800207047F0B5002204464FF60D
S31508006450FF750B4F90B207EBC003B3F86060AE420E
S3150800646001D12846F0BDA64208D1B4F57C4FF9D330
S31508006470B3F862308B42F5D00029F3D00132E9E750
S315080064805C9D0308024AD37923F00103D371704750
S3150800649030250020F8B50026454C3046267624F0EF
S315080064A04DF84449E5690B7B83B14348226A436F3B
S315080064B023F440734367AB01404803F5742303F2A2
S315080064C03F23B3FBF0F3134423620E734FF480119A
S315080064D03B4BD3F800213B4A51664FF400315166D5
S315080064E01A6F394902F0070262628969032A01F0C4
S315080064F00200C1F3400184F828100BD0D3F82021FC
S3150800650002F00702022A05D0D3F8282102F0070272
S31508006510022A11D1012384F82930D8B9E369274A18
S31508006520C3EB431303F5742303F23F23B3FBF2F3E0
S31508006530226A13442362F8BD002284F82920002821
S31508006540ECD0D3F8003103F003035A1E53425341EB
S3150800655084F829301A4BD3F8003103F00303022BD1
S3150800656021D0032B22D0012BD8D1184B1A68002A28
S31508006570D4D0154B114FDE6800231946C6F30B0617
S315080065800136501E06EB8606E6FB07012AF074FD67
S31508006590684300F5742000F23F20B0FBF7F0236A49
S315080065A018442062BAE74FF40042E2E7084AE0E7F7
S315080065B030250020644000200040005040420F0073
S315080065C0008000500090005000C001503840002064
S315080065D080D54302082201492BF084BB5A250020A6
S315080065E008B5C368806803F18043023B50F823006E
S315080065F0022206492CF057F9054B10B983F83200E8
S3150800660008BD002283F83320FAE700BFFF510308CC
S31508006610302500201EF0BABF1FB500248DF80040B3
S31508006620E0B26946013419F05BF80A2CF8D119F082
S315080066301BF904B010BD70B586B001AA00210FF091
S31508006640F1FB02AC0346224600F1100625461868FF
S315080066505968083303C5B3422C46F7D1084C06AD32
S31508006660134603CBAB42206061601A4604F1080466
S31508006670F6D10122034B83F8442006B070BD00BF53
S3150800668064250020302500202DE9F3411D461646D5
S3150800669001AA9DF820400FF0C5FB019B80469D424C
S315080066A038BF0195019F04B1EC1B224600213046F4
S315080066B02BF010FB3A46414630192BF013FBF8B283
S315080066C002B0BDE8F08170B41D46084E9DF80C3046
S315080066D096F845400134E4B286F8454004F07F0454
S315080066E02C70039570BC07F0AFBE00BF30250020A4
S315080066F01FB5030A8DF80E300323009303AB8DF8FC
S315080067000D00FFF7E0FF05B05DF804FB302383F3C7
S3150800671011884FF20F02094B18805A80BFF35F8F1A
S31508006720BFF34F8F0649074BCA6802F4E06213436A
S31508006730CB60BFF34F8F00BFFDE700BF783E002058
S3150800674000ED00E00400FA0540F2016008B5FFF725
S31508006750DDFF022801D12DF04CBE70472DE9F04F20
S31508006760604D6148294689B00DF0E0FB044610B338
S31508006770D5E90001AB6900241B689847AB6904A8F2
S315080067809B689847AB690220DB68984705986B6851
S31508006790E1B2B3FBF0F38B42AA6904F101044ED8C7
S315080067A0D36800209847AB695B6898474D494E48BF
S315080067B00DF0BCFB04464FF000084C4D4A4E05F15F
S315080067C0840905F5847AF4B9494B18F80330002B87
S315080067D000F08280D9F800703046394603AB02AA29
S315080067E00CF066FC2D2807D068B9029B012B0AD04D
S315080067F0394630460DF08EF82B68394630461A6809
S315080068000DF044F8044608F10108B8F1210F05F126
S31508006810040509F104090AF1010AD4D1B4FA84F38A
S31508006820344A5B0982F84C302F4B1B7C1BB1DB21A9
S3150800683031482CF079F9204609B0BDE8F08F2E686A
S31508006840136901FB00609847A0E7D9F80030304685
S31508006850194402AA03AB01910CF02AFC2D280199D0
S315080068602AD010B30BF1010B5FFA8BF1B942ECD3C6
S31508006870224B18F80330002BC5D0FBB27E2BC2D8AA
S31508006880D9F80030304607EB030B594603AB02AA8A
S315080068900CF00EFC2D28B6D0594630460DF03AF8C5
S315080068A0013704460028E8D0ADE7029B73B99AF889
S315080068B00020039B9A42D5D030469AF800302A68C1
S315080068C00CF09EFF0028CDD00446D1E73046019152
S315080068D00DF020F80199EFE7094BA34618F8037065
S315080068E0C2E700BF4040002018140020CC9D0308D2
S315080068F0F59E03083025002050470308379F0308F4
S31508006900169F03086E4A2DE9F0416E4B55686E4C8A
S315080069109D65516AD9656D49D1F800021866D1F8A6
S3150800692004025866D1F80812986B9966916A10F0B5
S31508006930040FD966D16A4FF000001967116B5967C1
S31508006940516B9967D26B1865DA67D3E90F1218BFCE
S3150800695011465F4A91425A655DD301F12000A04273
S3150800696059D88869C5F308055864CE69062D9E640A
S3150800697055D1584DA84252D3574DA8424FD20588F3
S315080069804DF6426085424AD15868C3F8980098681F
S31508006990C3F89C0040F20170A242154604D22E6844
S315080069A00432B6F1CD3FF7D00022C3E92022C3E96D
S315080069B02222C3E92422641BDFF818C1424DDFF8FE
S315080069C018E1DC648D422DD8D3E920C7D3E92265C6
S315080069D0D3E924414FF0000E013AD2B2FF2A3CD146
S315080069E0BEF1000F05D0C3E920C7C3E92265C3E994
S315080069F02441B3F85830C3F308030C2B3BD8022BB9
S31508006A0054D9DA1E092A51D8DFE802F03157404333
S31508006A1050505050504D0021C3E911112C494FF4E4
S31508006A202060B9E755F8044D6445CBD37445C9D2FF
S31508006A30E607C7D50026294F57F8048FA045C1D0C9
S31508006A400136062EF8D132B1013AD2B203EB8206EC
S31508006A50C6F88040B6E70522F8E7E0464FF0010E93
S31508006A60BC4637462E4625460C464146B4E740F610
S31508006A700120BDE8F0814A2B18D1194B9B6913F008
S31508006A80020F40F2025318BF1846F2E740F60320F9
S31508006A90EFE740F2017240F60423B0F5206F14BF09
S31508006AA010461846E5E740F60520E2E740F60722D5
S31508006AB0013B6B2B98BF1046DBE740F60220D8E770
S31508006AC000ED00E0783E00200810002000E100E01C
S31508006AD008000020D062000860450308F43E002044
S31508006AE00040005B0B4AB2F900301088002BB8BF93
S31508006AF080F06200B2F9021043001380538800291F
S31508006B00BCBF83F4805383F00B035900518058406F
S31508006B10704700BF644000202DE9F74F002800F0B9
S31508006B20E0807149D1E9194EEFF3118B302383F3D5
S31508006B30118810F8086C30F806CCF30702D5BCF1BA
S31508006B40000F07D18BF31188BFF36F8F012003B0B5
S31508006B50BDE8F08F8B6DD1F86090A3EBCC0330F8CD
S31508006B60048C00938B6509F10103A0F108050CF16B
S31508006B7001020B66B8F1000F3AD0A5EBC803DF880F
S31508006B80B3F802A001971F7806F00206FF0724D47F
S31508006B9026BB019EA6EB0A06012E29D1009E0CF102
S31508006BA00202A6F108075244C1F860908F6530F8D2
S31508006BB0028CB8F1000F1DD110F8085C20F8068C7D
S31508006BC068F3000500F8085C013A5A801A7868F3F9
S31508006BD000021A700022DA803FE04EB110F8086C05
S31508006BE042446FF3410600F8086C00269E80DEE7F3
S31508006BF02B46DCE705EBC809D1E914673744B945E4
S31508006C000ED310F8085C013A6FF3000500F8085C2B
S31508006C10002520F8065C5A801A7865F30002D8E742
S31508006C2015F838504E4615F0010530D010F8085CB6
S31508006C30013A6FF3000500F8085C002592B220F8C7
S31508006C40065C5A801A7865F300021A70C3F10702C7
S31508006C503244C2F3CF02DA80B280002C3FD09C4285
S31508006C603DD86288002A08BF1C46BEF1000F06D030
S31508006C709E4504D3BEF80220002A18BF7346C1E910
S31508006C8019438BF31188BFF36F8F00205FE7A8EBDA
S31508006C900C08B8F1010FC9D1B9F80270A9F8025069
S31508006CA01744B9F80620C2B109EBC20600250A6ED8
S31508006CB0013A0A668A6D083A8A6510F8082C20F89F
S31508006CC0065C6FF3000200F8082C1A785F8065F3FB
S31508006CD000021A70002EB9D17CE71646E6E71C4674
S31508006CE0C3E7222033E700BF30250020002313B571
S31508006CF0019369B160B101FB00F401A920461FF0B8
S31508006D00D9FD014620B9019810B122462AF0E2FFC2
S31508006D10019802B010BDFEE7002307B5084601A991
S31508006D2001931FF0C7FD019803B05DF804FB084600
S31508006D30F2E608461146D9E7002303604360704728
S31508006D4030B5D0E9054553B394420FD0E2B904698A
S31508006D5074B9036983B3002918BF0D462B78DB077E
S31508006D6014D5AB8843B3A5EBC305F7E704698CB123
S31508006D7041B904682378DB070CD5E3884BB104EBEB
S31508006D80C304F7E70C46F5E79542E2D0C0E90545A6
S31508006D9030BD1C469542DCD0002ADAD0F6E794428C
S31508006DA008D08C4228BF0C46954207D08D4238BF82
S31508006DB00D46EBE70C46F7E71D46E7E70D46E5E720
S31508006DC000232DE9F347864E0193736D0C469A42CC
S31508006DD0104604D239B912B101A91FF06BFD01980A
S31508006DE002B0BDE8F0871AB90846FFF795FEF6E740
S31508006DF0EFF31187302383F3118834F8063C073004
S31508006E004FEAC30820F00705A845A1F1080178D282
S31508006E1034F8020C002863D0C21A012A60D101EBAB
S31508006E20C00211F83000C0075AD4B2F802C0A8EB65
S31508006E30050919EBCC0953D4B9F11F0F35DDC5F394
S31508006E40CF03611924F8063C0133084624F8023CAE
S31508006E50FFF772FF34F8020C4FEAD9038880D0880E
S31508006E604B80F8B1B2F802C0A0EB0C0C1CFA83F305
S31508006E709BB202EBC000CB80838000235948FFF702
S31508006E805FFF1046FFF758FFB36DF26D2B44A3EB77
S31508006E90080393420194B36531D887F31188BFF389
S31508006EA06F8F9CE70023CB80E7E7306E013301380C
S31508006EB03066D088634424F8063C68B1B2F802C04C
S31508006EC0A0EB0C0C1CFA83F39BB202EBC00024F86F
S31508006ED0023C83800123D1E7002324F8023CF9E72A
S31508006EE0284601A91FF0E6FC0028D6D142462146CD
S31508006EF001982BF0E8FC2046FFF70EFECDE7F36578
S31508006F00CBE76AD934F8020CA8EB050900F1FF3A79
S31508006F10AAEB030A002837D011F8303001EBC0027B
S31508006F20DB0732D4BAF1000F2FD1C5F3CF036119AD
S31508006F3024F8063C0133084624F8023CFFF7FCFE19
S31508006F40508800EBD90334F8020C4B808880D0882F
S31508006F50C0B1B2F802C0A0EB0C0C1CFA83F39BB2CA
S31508006F6002EBC000CB8083801E480023FFF7E8FEB3
S31508006F701046FFF7E1FEB36D01941D44A5EB080525
S31508006F80B5658AE7C880EFE70246B9F1270FF2D957
S31508006F90C5F3CF03611924F8063C0133084624F8E3
S31508006FA0023CFFF7C9FE34F8020C09F1FF33DB088F
S31508006FB04B8088807AB10AF1010A1AFA83F39BB2E8
S31508006FC0CB809380336E07480133336600231A4615
S31508006FD0FFF7B6FECFE7CA80F4E701945DE700BF86
S31508006FE0302500208025002010B5094B1B7873B189
S31508006FF0084C23785BB12BF029FE0022064B227041
S3150800700083F87C20012283F87D2083F87E2010BD3A
S315080070109114002092140020302500200122024BF2
S3150800702083F82920704700BF3025002020282DE945
S31508007030F743054604D82C46204603B0BDE8F0833E
S31508007040002427460B4EDFF83080DFF83090002307
S3150800705048461A461946CDE900870BF0CDFE84420C
S31508007060E9D2212CE7D056F8043BAB42E4D00134F0
S31508007070EDE700BF509E0308FFFF0F00181400201D
S3150800708073B515461A464BF234637F2D08BF0025A3
S315080070909942044619D16A467F2141F20200082323
S315080070A023F0F2F90822684627492BF0FCFB30B991
S315080070B008236A467F2141F2F01023F0E5F96B4672
S315080070C003CB2060616002B070BD41F2F0139942B3
S315080070D01ED11E4B986CD96C002AF4D01346651E37
S315080070E0161F013BB34205F8010F4FEA10200CD1D9
S315080070F0002BE8D00423D8B20728E1544FEA11211F
S31508007100E1D001339A42F6D1DDE7002BE9D1DAE77F
S3150800711001F47043B3F5805F0AD1C1F30B0404F19F
S315080071207E6402FB054102B0BDE870402BF0CBBB84
S3150800713001F46043B3F5005FC5D1C1F30B0404F154
S31508007140036404F5F034ECE75B9F03080080E00F66
S3150800715073B50D46910730D483072ED1034622F026
S31508007160030281188B4217D14FF48031174BAC18A4
S31508007170996641F6713103F51C33D963012103F58C
S315080071800053D960461BA54205EB060009D102B09B
S31508007190BDE870400DF0E4BF1C6801340DD104331E
S315080071A0E0E7042255F8043B0DEB020101932DF0AC
S315080071B0E7F90028E7D00DF0D3FF4FF49C71044897
S315080071C002B0BDE870402BF0AFBC00BF0090005085
S315080071D0C247030810B504462BF0F4FB0C4BA0F588
S315080071E07A729A4212D84FF47A73B0FBF3F05C4382
S315080071F0084BB3FBF0F3B4FBF3F0022806D9BDE85D
S3150800720010400323B0FBF3F0FFF762B810BD00BFD0
S31508007210FFC99A3B40420F0030B54FF48A54184BC9
S3150800722093F8E050A3F88210B3F88C10003D18BF0D
S3150800723001250029A3F8864014BF012400244FEA3B
S31508007240840444EA051440EA040083F88E0014BF57
S31508007250032001200B4C1EBF83F88F10090A83F800
S315080072609010617B0131C9B261731C1801F07F016E
S31508007270023084F88E1084F88F20A3F8E20030BD1F
S315080072803025002064400020044AB2F8E230D118C4
S31508007290013381F88E00A2F8E230704730250020CD
S315080072A010B50446C0B2FFF7EFFF200ABDE810404C
S315080072B0EAE738B5D1E902320C46054653F82230DA
S315080072C0024619880B4B187AFFF7A6FFE368A268EF
S315080072D0013352F823301888FFF7E2FF45B1E36817
S315080072E0A268023352F823301878BDE83840CBE755
S315080072F038BD00BF3025002030B5104C85B094F855
S31508007300E450C5B142EA03229DF820308DF80510F5
S3150800731042EA432294F888318DF80610099904EB5D
S31508007320031400908DF80400D4F8F43068460291EE
S31508007330ADF80C20984705B030BD00BF30250020B9
S3150800734013B51E4C04F5C6701EF0AAFC94F8E4307A
S3150800735093B394F8883104EB031393F8F020D3F829
S31508007360EC1093F8E80013F08FFB4D2824D018B3DF
S315080073700123002194F88821CDE9003104EB02129B
S3150800738092F8E820C0B2FFF7B7FF0A2294F88831CE
S3150800739004F5C6700133DBB2B3FBF2F102FB11331D
S315080073A084F8883194F8E430013B84F8E43002B07C
S315080073B0BDE810401EF004BB02B010BD3025002009
S315080073C04FF6FF7310B5044C62899A4202D108F051
S315080073D0D9FF6081608910BD30250020074B03EB7B
S315080073E0001090F8B83133B990F8B931DB0702D5F7
S315080073F090F8AC017047FF20704700BF3025002089
S315080074000388B3F57C4F01D3FFF71CB800207047FB
S3150800741010B54A880488A2420DD1037B0C79234013
S3150800742009D0B2F57C4F08D3FFF70CF80B891B1A65
S315080074305842584110BD0020FCE70120FAE72DE923
S31508007440F74FCDE9002300239846434C894694F824
S31508007450BC110546067804F5D670DAB28A4212D20D
S315080074600278B24207D08268D28842441FFA82F86C
S3150800747001331030F1E7427BD707F9D504EB031344
S31508007480D3F8B47127B90022104603B0BDE8F08FCF
S315080074900026B24697F804B0F2B25A454FF01403E4
S315080074A0F1D23C68294603FB06442046FFF7B0FFA5
S315080074B00136024620B9628952441FFA82FAEBE77E
S315080074C0002CE0D000263746B4F808B0B1B28B4598
S315080074D0D9D90C2303FB06F0636833F800C01918E2
S315080074E0E88884450AD12088B0F57C4F21D2204609
S315080074F0FFF786FFB5F808C084451AD00879013623
S3150800750010F0300F02BFC978C9198FB2DEE71C79AF
S315080075100C33A40642BF13F8094C001980B29942ED
S31508007520F5D80E4B034401990B60ADE700200C4BD0
S31508007530F5E7009BC9F800401960087910F02003A8
S31508007540F4D1C1065FBF08EB0A03064917FA83F3AD
S3150800755011FA83F3E7E700BF30250020ED26002067
S31508007560649F0308F12600200146002230B5094B26
S3150800757093F8BC4103F5D673D0B2844201D8FF20F4
S3150800758030BD1D788D4202D15D7BED07F8D40132FE
S315080075901033F1E730250020F8B506460C46FFF70C
S315080075A0E3FF002844D1234D95F8B87137BBB5F8E9
S315080075B0AE3130462380B5F8B031638095F8B231E4
S315080075C02371FFF7D1FF20BBD5F8B42132B10346AA
S315080075D04FF0140C1779D9B28F4210D86071304623
S315080075E0FFF7C2FF10BBD5F8B4212AB1034614260B
S315080075F01579D9B2A9420ED3A0710120F8BD116838
S315080076000CFB0311097B0133490644BF0130C0B2A4
S31508007610E1E73846E2E7116806FB031191F90C1019
S3150800762001330029BCBF0130C0B2E2E70020E3E71E
S315080076300020E3E7302500202DE9F8430F46904661
S315080076401E46FFF791FF044640B94FF01409174B41
S31508007650D3F8B4311979E2B28A4201D3002519E088
S3150800766009FB04F01A681518125A97421BD1B8F18B
S31508007670000F06D0B8F1800F0FD195F90C0000283D
S3150800768011DAB2F57C4F05D32846FEF7DBFE8642B3
S3150800769000D046B92846BDE8F883B8F1400F02D1B4
S315080076A0287B4006EDD40134D5E700BF30250020FD
S315080076B0F8B50D461646FFF757FF034648B9044680
S315080076C04FF0140C0C4AD2F8B4211779E1B2B9423A
S315080076D001D30020F8BD10680CFB0400017B46B9F5
S315080076E011F0800F03D09D42F4D00133DBB2013490
S315080076F0ECE711F0400FF5E73025002070B5044699
S315080077000E461546FFF730FF70B9094B93F8B821B6
S3150800771052B93EB9012229462046FFF7C9FF18B1DA
S31508007720008870BD012EF6D04FF6FF70F9E700BF4E
S315080077303025002000207047084BB3F8C221512A93
S315080077409FBF9918013292B281F8C4019DBF98185B
S3150800775000F2C310A3F8C22100207047302500208C
S3150800776038B50546C0B2FFF7E7FF0446280AFFF713
S31508007770E3FF14B1002808BF0024204638BD8B1C3F
S315080077809342CFBF002043185B78405CD8BF00EB1C
S31508007790032080B27047002108B50222FFF7EFFFE9
S315080077A04FF6FF73984208BF084608BD10B5144641
S315080077B0A0F14102012A0BD844B10878FF2816D057
S315080077C00130C0B2A04294BF04460024204610BD32
S315080077D0A0F14303012B07D8012C0AD90846FFF765
S315080077E0DAFF023080B2EDE7FEF71CFEEAE7012475
S315080077F0ECE70024EAE7F8B50F460646BDF8181088
S3150800780000284CD0907839B9D578A0F14104012CDC
S3150800781016D81FB9377005E00D46F6E73B78FF2BFB
S3150800782002D133700020F8BD013DEDB29D4228BF5C
S315080078301D46791C2A46701C2AF054FA3570F1E761
S31508007840433801281DD80FB97770E3E73B78FF2B3B
S3150800785005D17B78FF2B02D133707370E2E7384687
S31508007860FFF799FF023DACB2844228BF0446A4B292
S315080078702246B91CB01C2AF035FA3470240A7470F2
S31508007880D0E7D27813B909B18A4208D839463046C2
S3150800789017B92AF01FFAC5E72AF024FAC2E78920A1
S315080078A0C1E708B5FFF760FEFF280CBF21200020BE
S315080078B008BD836910B503F00202DB0704460ED43F
S315080078C0C369EAB91BB9AD2111482BF02DF9204639
S315080078D008F06EF92046E369BDE8104018470AB972
S315080078E0C369EFE7A5210A482BF01EF9E3694BB1F6
S315080078F0204608F05DF9E369607EBDE81040184748
S31508007900002BF6D1AD2102482BF00EF9F0E700BFA7
S315080079103A480308F8B504460025142786683279DC
S31508007920EBB29A4200D8F8BD3068012107FB030084
S31508007930FFF700FF034608B1207898470135EEE7C0
S315080079400A4890F8163283B9194600F50672D372BA
S315080079500133042B1173117051601181917202F178
S315080079601002F4D1012380F8163270473025002022
S3150800797008B5FFF7E5FF002305481A01115C09B9A8
S31508007980104408BD0133042BF7D10020F9E700BFE6
S3150800799048270020F0B523B9013A531C2FD10020FF
S315080079A020E0042AFBD800231C46551E6E1C1AD15B
S315080079B0042A10D00121D200501E01FA00F02042FC
S315080079C01EBF914049420C4318421EBF4FF0FF317B
S315080079D001FA02F213439C4216DCB4BF4FF0FF30A3
S315080079E0002040B2F0BD40B1465DEF00BE403443D2
S315080079F04E5D013DBE403343D8E70646F5E78C5C4D
S31508007A0020B1835CA34202D90120EBE70346A342D7
S31508007A1002F1FF32C1D24FF0FF30E3E7034641607F
S31508007A20EFF3108072B6034A916F196093672CF0D2
S31508007A30ABBC00BF302500200246EFF3108072B6BB
S31508007A40074951F8783F2BB19A4205D113680B6064
S31508007A50002313602CF098BC19461B68F3E700BF97
S31508007A60302500200246EFF3108072B60B4991F8D4
S31508007A705832FF2B02D172B12CF086BC1BB9002AF2
S31508007A80FAD0012203E0002A0CBFFF220122134488
S31508007A9081F85832F0E71A46F9E700BF302500208A
S31508007AA02DE9F843EFF31187302383F31188324E1B
S31508007AB096F86352002D59D1304875613560B56422
S31508007AC02CF048FDBFF34F8F2D4C0DF011FC636869
S31508007AD0012B38D0E5602CF067FB4FF000090F2228
S31508007AE00124284B264DDFF8A880C5F848905A642B
S31508007AF01A640DF0FDFBC8F804402C612AF076FFE5
S31508007B004FF40022204BC5F818905320C3F888215B
S31508007B100FF0C0F8C8F84440EFF31185302383F31B
S31508007B2011884FF4E0600CF097FC85F31188BFF3D9
S31508007B306F8F164B1860B8B987F31188BFF36F8F2C
S31508007B402320BDE8F883D4F80480B8F1010F02D0E9
S31508007B500DF0CEFBBEE763682AF048FF02232361D7
S31508007B60084BC3F80480F3E786F8634287F3118865
S31508007B70BFF36F8F0020E4E730250020889F0308B5
S31508007B8000C00A5000E00A5000E100E08814002016
S31508007B9000D00A500CB44FF48A73C340DB0713B500
S31508007BA00C460CD5084B1B69184208D005A9049841
S31508007BB0019107F02BFC14B1044807F017FC02B03A
S31508007BC0BDE8104002B0704764400020AE48030884
S31508007BD0064B10B5D3F864022AF069F9BDE81040DF
S31508007BE0034601210220024AD4E700BF30250020BF
S31508007BF0B048030813B5D0E9023253F822301C788E
S31508007C00084B2146D3F864022AF06DF9003818BFEC
S31508007C1001202346009001210220034AFFF7BAFFFC
S31508007C2002B010BD30250020C4480308F7B500246B
S31508007C30104D114E114F95F8BC21E3B29A4201D866
S31508007C4003B0F0BD05EB031393F8B921002112F038
S31508007C50010F0CBF32463A460092022093F8AC3127
S31508007C60074AFFF797FF01210220064AFFF792FF0E
S31508007C700134E0E730250020E04E0308D64E03081D
S31508007C80DC48030803460308D0E90232114853F8D2
S31508007C9022205B6811781A7890F8BC315BB190F8AD
S31508007CA0AC318B4207D1652A90F8B93107D0002349
S31508007CB080F8B931704701210220074A6AE743F084
S31508007CC00102DB0780F8B92100D5704700F5D670A8
S31508007CD020E600BF30250020E748030800210220DF
S31508007CE0004A57E70149030800210220004A51E7E4
S31508007CF02F49030807B5FF224FF6FF71002013F03E
S31508007D00DBFE00210090044B0220044AFFF742FFE5
S31508007D1003B05DF804FB00BF4B490308514903084B
S31508007D2013B5D0E9023253F8221003EB82035B68DD
S31508007D30087819680023094CA222994208BF2146EF
S31508007D40C01A18BF012012F0C2FF01210090044B8F
S31508007D500420044AFFF71EFF02B010BD00F8FF0713
S31508007D604EC00308F949030813B5D0E9023203EBFC
S31508007D70820153F82230D1E901141878FF2200381D
S31508007D8018BF01202378096812F0A1FF012100908D
S31508007D90034B0420034AFFF7FDFE02B010BD00BFE7
S31508007DA05C490308F94903080D4810B590F868328C
S31508007DB083B100F51B7007F0B4FE4FF47A73B0FB7D
S31508007DC0F3F313F0FF0305D0BDE8104001210420AA
S31508007DD0044ADFE60121BDE810400420024AD9E63C
S31508007DE03025002071490308824903080E23012122
S31508007DF00220014ACEE600BF8D4903080E23012161
S31508007E000220014AC6E600BFA349030837B5D0E9F0
S31508007E100232012453F822304FF6FF701D78FE22F5
S31508007E2004FA05F1002319F053FC2B46009021466D
S31508007E300420024AFFF7AEFE03B030BDB749030877
S31508007E40D0E9023253F822301B781BB101210220F7
S31508007E50024A9FE6024A82F88C327047D6490308DE
S31508007E603025002007B50220054B01210093054A5D
S31508007E70054B0190FFF78EFE03B05DF804FB00BFCB
S31508007E80034A0308EC490308AE8A030807B502202B
S31508007E90054B01210093054A054B0190FFF77AFE31
S31508007EA003B05DF804FB00BF034A0308EC49030866
S31508007EB0BE8A0308D0E9023253F8223007491B78F4
S31508007EC0074A04201375B1F88E2222F003021343E1
S31508007ED0A1F88E32034A01215CE600BF3025002056
S31508007EE064400020174A0308D0E9023253F82230CA
S31508007EF001211A88024B0420DA82024A4AE600BFA8
S31508007F0064400020334A0308C3688268013BDBB239
S31508007F1052F8233002201B78652B14BF002201215A
S31508007F20044B1BBF01211A76034A044A08BF197677
S31508007F3030E600BF64400020634A0308714A03081C
S31508007F402DE9F041D0E9025355F8232005EB8305C6
S31508007F50AB6807461E7886B0304692F80080FFF771
S31508007F60A0FC0446C8B901238DF808306B680421C3
S31508007F701B888DF80960ADF80A30EB680DF10D0223
S31508007F801B7838468DF80C301DF0ECFA404602A9ED
S31508007F908DF8154017F05CFF04464346012104207E
S31508007FA0034A0094FFF7F6FD06B0BDE8F08100BF6E
S31508007FB0804A03080E2307B50193D0E9023253F825
S31508007FC0223001211B7802200093034A034BFFF756
S31508007FD0E1FD03B05DF804FB9C4A0308944A0308D4
S31508007FE037B5164C012594F88E30B4F8E22013F014
S31508007FF0040F0CBF0223042384F8905223440192F1
S3150800800093F88E3029460093B4F8823002200C4A41
S31508008010FFF7C0FD002102200A4AFFF7BBFD2A46EA
S31508008020B4F8E21004F18E00074B1DF02FFA29462A
S315080080300220064A03B0BDE83040ABE530250020F3
S31508008040B34A0308D84A03083D61030803460308F0
S3150800805010B5D0E90232044653F8223013221988A3
S315080080600B4B187AFFF7D8F8E368A268013352F881
S3150800807023301878FFF708F9E368A268023352F844
S3150800808023301878FFF700F9BDE81040A8E700BFCD
S315080080903025002010B5D0E90232044653F82230C4
S315080080A0112219880B4B187AFFF7B6F8E368A2680D
S315080080B0013352F823301878FFF7E6F8E368A26828
S315080080C0023352F823301878FFF7DEF8BDE810407F
S315080080D086E700BF3025002010B5D0E9023253F8F4
S315080080E02230044619880D4B0622187AFFF794F8B1
S315080080F00120FFF7C9F8E368A268034452F8233061
S315080081001888FFF7CDF8E368A268023352F82330DF
S315080081101888FFF7C5F8BDE8104061E7302500204C
S315080081202DE9FF470446E368A268023352F8233074
S3150800813008461E782146FFF7BCF8274DA6F14103ED
S31508008140032B05F18E0836D8433E012E8CBF012637
S315080081500226032103AA20460DF064FEB5F8E27054
S31508008160039AC7F152039B1B9BB2934207EB060285
S315080081703CBFC2F1520303930123DDF80C90009330
S315080081805FFA89FA5346424403212046FEF77CFAF1
S31508008190022E05EB070208BF4FEA192382F88EA0C4
S315080081A008BF82F88F304F443E44A5F8E26004B019
S315080081B0BDE8F04714E73046FEF734F90123B5F871
S315080081C0E270064600930321034608EB07022046A1
S315080081D0FEF75AFAE8E700BF3025002002219FE79C
S315080081E003219DE705219BE708B501460C20FFF70B
S315080081F060F8BDE80840F3E608B501460020FFF739
S3150800820058F8BDE80840EBE610B5D0E90232044656
S3150800821053F82230082219880B4B187AFEF7FCFF10
S31508008220E368A268023352F823301878FFF72CF86F
S31508008230E368A268013352F823301888FFF730F84C
S31508008240BDE81040CCE600BF30250020F7B5D0E9E0
S3150800825002320446023253F8221003EB820353F823
S31508008260042C294E53F8083C0D78178819880622DD
S31508008270307AFEF7D1FF0020FFF706F83846FFF7F9
S315080082800FF82846FFF700F8E368A268033352F8A8
S3150800829023301888FFF704F8E368A268043352F815
S315080082A023301888FEF7FCFF00231848C21892F8F6
S315080082B03012A94217D392F831320BBB2846FEF783
S315080082C0B1F80521054601AA20460DF0ABFD019B34
S315080082D001469D420AD02A4639460D4803B0BDE8F4
S315080082E0F04007F05BB80233DBB2DFE7B6F8E240EE
S315080082F008482A462044254429F0F4FCA6F8E2500A
S3150800830003B0BDE8F0406BE6302500205C9D03080D
S31508008310E14A0308BE250020D0E9023253F822308C
S3150800832013B51B88144C4FF48A52A4F882300023E4
S31508008330A4F88620012104F18E0200935223FEF749
S31508008340A3F994F88E3013F0040F94F891320CBF09
S31508008350012203224BB1094922444B7B0133DBB28C
S315080083604B7303F07F0382F88E30A4F8E20002B064
S31508008370BDE8104034E600BF3025002064400020E8
S3150800838070B5434C88B094F890323BB9012102206D
S31508008390404A08B0BDE87040FFF7FCBBD0E902329E
S315080083A053F8223001211D78B4F882300220009358
S315080083B0394A2B46FFF7EEFB84F88450657A002D80
S315080083C038D001210220354AFFF7E4FBB4F8E26011
S315080083D066B1002504A9E8B217F0DEF930B99DF8B0
S315080083E01000032804D001350A2DF3D108B070BD5A
S315080083F09DF8112094F884309A42F4D1BDF81220E1
S31508008400B4F882309A42EED19DF814304FF6FF72D6
S3150800841084F885300123BDF81510A4F88810CDE935
S3150800842001321F4A334600920E3A1FF097FD002884
S31508008430D9D0DBE7B4F8E26004A9E8B217F0ACF9E2
S315080084400028D3D19DF81030012B03D001350A2D11
S31508008450F2D1CBE79DF8112094F884309A42F5D1F1
S31508008460BDF81220B4F882309A42EFD19DF8143044
S315080084700B4A84F88530A9B2CDE90100009233464B
S3150800848002200E3A1FF06AFD0028DFD0AEE700BFD3
S31508008490302500202C4B03083A4B0308514B0308A0
S315080084A0BE2500207FB5D0E90213406851F8232085
S315080084B0C01A01EB83040228C8BFA068158803F117
S315080084C0FF3362682A4CDBB251F8236094F8903285
S315080084D0D8BFFF201278C8BF00783BB90121022017
S315080084E0244A04B0BDE87040FFF754BB0AB994F8B3
S315080084F0AC2184F8842084F88500FEF761FF327980
S31508008500B4F8E2305F2A1C4A1CD101214FF6FF76E7
S31508008510A4F888500320CDE90116294600920E3AA0
S315080085201FF01CFD28B1034601210220134AFFF75C
S3150800853031FB002384F89032A4F88C3084F8E030BC
S3150800854004B070BD4FF6FB718D4209D901214FF673
S31508008550FF700092CDE901100E3A29460620DFE7A2
S31508008560002000922946CDE901000E3AD8E700BF5F
S31508008570302500206B4B0308BE250020724B0308EC
S31508008580002210B50A2104461046FEF745FE10469D
S31508008590FEF786FE0122044B83F89222FFF720FDA0
S315080085A02046BDE810407DE7302500200A4A92F8AB
S315080085B0903223B101210820084AFFF7EBBAD0E927
S315080085C0023153F8213008201B880121A2F88C308B
S315080085D0034AFFF7DFBA00BF30250020994B03088E
S315080085E0DB4B0308D0E9023253F82230054A1B78E0
S315080085F00121003B18BF0123082082F89132024A64
S31508008600FFF7C8BA30250020014C0308D0E902322A
S3150800861053F82230044A1B78012182F8E0300820FA
S31508008620024AFFF7B7BA00BF30250020304C0308CE
S315080086301FB5D0E90232042453F8221003EB820353
S315080086405B6808881B78020A21468DF80E208DF88B
S315080086500F304FF48A5203AB00948DF80D00FEF7E5
S3150800866032F8012103462046024A04B0BDE810400C
S31508008670FFF790BA664C0308D0E9023253F8223065
S3150800868002214FF48A5210B51888FEF731F8BDE872
S315080086901040034601210420014AFFF77BBA00BFB8
S315080086A07F4C030807B5D0E902300E4A03EB800178
S315080086B053F820304968188802F29E2309880193E6
S315080086C092F83330009302F5257392F832201CF0A5
S315080086D0FBFE012103460420034A03B05DF804EBC0
S315080086E0FFF758BA30250020964C030838B51546CA
S315080086F01A461C461CF036FF28B92146284608F0BB
S3150800870041FD044610B90024204638BD0121042045
S31508008710014AFFF73FFAF7E7AE4C03082DE9F041A7
S31508008720D0E9023253F8221003EB82035A680D8807
S3150800873092F800809A68DB688CB016781F882A46FB
S31508008740042104AB0446FFF7D1FF88BB0521204668
S3150800875002AA1CF007FF38B904200121164AFFF7C0
S3150800876019FA02A8FDF736FF04AB03CB03238DF8ED
S31508008770243002ABCDF81900CDF81D1003CB162313
S315080087804FF48A52CDF82500CDF8291000932121FF
S3150800879006AB28468DF82180ADF822708DF82D603D
S315080087A0FDF791FF01210346044A0420FFF7F2F979
S315080087B00CB0BDE8F08100BFEC4C03081B4D030864
S315080087C038B5D0E9024303F18043023B022254F84C
S315080087D0230010499D002AF066F80F4B1A4668B91F
S315080087E012F8321F03F5257304290CD82C44A06807
S315080087F0008823F811000131117038BD12F8331FB3
S3150800880003F29E23F0E70121BDE838400420034A1D
S31508008810FFF7C0B9FF510308302500202D4D030886
S3150800882037B5D0E9023153F821208D001478426813
S31508008830521A012A07DD2B445B6818781D2813D1C4
S315080088401D20082C08E0600940F018001D2804F0D7
S315080088501F04F5D00AD91A2C0AD80121A1400023F1
S31508008860FE2241EAC06119E00BD878B11C28F2D083
S31508008870034601210420104A0094FFF78BF903B040
S3150800888030BDA0F11E03012BF2D8E4E7A4F10B03D7
S315080088900F2BEDD801210346FE22A1404FF6FF70AB
S315080088A018F016FF012103460420044A03B0BDE868
S315080088B03040FFF76FB900BF434D0308634D030807
S315080088C010B5D0E9023253F8221003EB82039B68F5
S315080088D088B01B780C88003B18BF0123DB018DF894
S315080088E01D300A230E4903AAD1F84202D1F84612CE
S315080088F003C203AA03CA0093CDF815001346CDF8A0
S315080089001910402234212046FDF7DDFE0121009092
S31508008910044B0420044AFFF73DF908B010BD00BF18
S315080089205C9D0308814D03088B4D030807B5D0E904
S31508008930023253F82230032140221888FDF7D8FE68
S3150800894001210090034B0420034AFFF723F903B0E3
S315080089505DF804FB814D03089A4D03082DE9F043A1
S315080089600C4615461F46D0E9022352F8231002EB9F
S31508008970830293680E8893F80080D3688DB0B3F8A5
S3150800898000903246012104ABFFF7B0FE68BB7CB30A
S3150800899001232D8804AA012B03CA8DF82180CDF85E
S315080089A01900CDF81D10ADF822908DF8243026D088
S315080089B002AB03CB1623CDF82500CDF829108DF888
S315080089C02D70402222210093304606ABFDF77BFE30
S315080089D00E4B0F4A00930F4B0190002C08BF13460D
S315080089E0012104200C4AFFF7D5F80DB0BDE8F08345
S315080089F02868696802AB03C325460323CAE78DF8CE
S31508008A0025502D0A0F238DF82650DAE7814D0308E5
S31508008A10BA4D0308B44D0308C24D030807B5C2682A
S31508008A208368043253F8223001211B880DF10602AF
S31508008A30ADF806300023FFF791FF03B05DF804FB9D
S31508008A4037B5C3688268053352F8233004216A466D
S31508008A5004461D781CF086FD38B904200121074A12
S31508008A60FFF798F86846FDF7B5FD2B466A460021DC
S31508008A702046FFF773FF03B030BD00BFD54D03088E
S31508008A801FB5D0E9023253F8221003EB82035B6864
S31508008A9008881B7840228DF80D3002233221009376
S31508008AA003ABFDF710FE01210090044B0420044A95
S31508008AB0FFF770F805B05DF804FB00BF814D0308A9
S31508008AC0064E03080D4B70B5DB790D4D0D4C012193
S31508008AD0002B0CBF2B46234602200B4AFFF75AF8F9
S31508008AE00A4B012193F8A8320220002B0CBF2B4613
S31508008AF02346BDE87040064AFFF74CB8644000209C
S31508008B001F4E03081B4E0308224E0308302500207B
S31508008B10414E030810B5D0E9023253F8223001213C
S31508008B201B780220002B15BF01240024034A044A9F
S31508008B30FFF730F8034B83F8A84210BD604E0308D0
S31508008B407D4E03083025002010B40A46D0E90231CC
S31508008B5053F821301C784FF48B73D34013F001017E
S31508008B6010D00B4803694CB11A430A4B0261002125
S31508008B700220094A5DF8044BFFF70CB823EA020203
S31508008B80064BF3E70220064A5DF8044BFFF702B8E6
S31508008B90644000209C4E0308AD4E0308A44E03080B
S31508008BA0C34E03080121CFE70221CDE70421CBE715
S31508008BB00821C9E71021C7E72DE9F3410024284F0A
S31508008BC0DFF8BC80274EE0B207F087FAFF28054693
S31508008BD00BD1234601210220234AFEF7DBFF01348D
S31508008BE0152CF0D102B0BDE8F081010657F8243003
S31508008BF00BD51E4A0121009202203246FEF7CAFF13
S31508008C005CB9EB0714D51A4A13E032460121022053
S31508008C10CDF80080FEF7BEFFE1E7032C11D1EA0785
S31508008C200DD5134A01210220FEF7B4FF0424CAE732
S31508008C30104A01210220FEF7ADFF0124C3E70D4AC1
S31508008C40F0E70A2CCBD10C4B15F0010F0B4A4FF06D
S31508008C50010118BF1A460220FEF79CFF0B24B2E753
S31508008C60A89F0308114F0308E94E030803460308A3
S31508008C70264F03083C4F0308D44E0308DE4E03086C
S31508008C80415003080EB417B505A9044651F8040B5C
S31508008C90019106F0BBFB01210220054AFEF77AFF87
S31508008CA0044BA3F8AA4203B0BDE8104003B07047CE
S31508008CB0034603083025002070B5044688B01822FC
S31508008CC0002102A829F006F8D4E9022052F820303B
S31508008CD002EB80021B788DF81330516891F9001069
S31508008CE08DF8121091680E886168ADF81060091A3F
S31508008CF0032907DDD26803F01F03127843EA4213FB
S31508008D008DF813303A4DD5F8AC32002B6CD01C7860
S31508008D10384A9DF81330012C4FF00000364900966A
S31508008D2008BF0224FFF7AEFF0122344B5A769DF89E
S31508008D301430002B43D007F025FB214602AA1CF06D
S31508008D4047FE044698BB9DF81430032B3AD10821F8
S31508008D5002460DEB010007F023FA002846D107F07A
S31508008D6011FB22464FF6FF7112F060F99DF81810B4
S31508008D7002A812F04CFB079ABDF816109DF81800C9
S31508008D8012F036FB95F8B032012B0ED195F8B132B8
S31508008D905BB116F06FFCD5F8B4325B0605D42346F2
S31508008DA021462046164A16F04FF911F0BFFD234614
S31508008DB000210220134AFEF7EDFE08B070BD4FF6FB
S31508008DC0FE70BAE702A811F065FD012195F82C336B
S31508008DD0032206209940A5F8C44211F055FE002842
S31508008DE0E5D02C740446E2E70224E0E70124DEE736
S31508008DF0302500204E4F0308534F030864400020D7
S31508008E005A250020704F03082DE9FF41D0E90232A8
S31508008E1053F8221003EB82035B68B1F800801F88C1
S31508008E20204B9C88FEF7A4FD054628B91E4A1F4913
S31508008E3004B0BDE8F04125E74FF6FB739C420AD91A
S31508008E404FF6FD739C4204D00020174A1849FFF7D5
S31508008E5019FF4FF6FD740026012241460DF10E0357
S31508008E602046CDE90066ADF80E701CF02DFB114AC0
S31508008E70034692F8458030B130460B4A0E4904B095
S31508008E80BDE8F041FEE63B46074A0C49FFF7FAFE05
S31508008E9006222146284608F07F0304B0BDE8F041C3
S31508008EA01DF0D3B9644000207D4F0308884F03089E
S31508008EB0B24F030830250020E74F03081050030877
S31508008EC008B5D0E9023253F822300D481B78002B3A
S31508008ED014BF0123002380F880330FD0094B5B8B26
S31508008EE033B14FF47A7100F5617059432AF05CFC8E
S31508008EF0054A0020BDE808400449C3E6044AF8E7E5
S31508008F0030250020644000203850030846500308E6
S31508008F103D500308D0E9023253F8223000201A885F
S31508008F20014B02495A83ADE6644000208750030886
S31508008F3037B50446FDF76AFA014630B100200D4AF6
S31508008F400D4903B0BDE830409CE6E368A268013BE2
S31508008F50DBB252F8233009481D780123A0F110022C
S31508008F606C2D18BF0246009320461023FDF78CFB94
S31508008F7003B030BD944A0308D5500308904000203A
S31508008F8013B583689A681278672A22D1684615F05D
S31508008F90F3FF0446A8B92849BDF80020FFF772FE7A
S31508008FA0BDF80030D9070AD413F0020F234B244A20
S31508008FB018BF1A4623490020FFF764FE38E0224A04
S31508008FC0F8E7024621490020FFF75CFE22462049C1
S31508008FD0F1E7C26853F8221003EB820300225B68AC
S31508008FE009681B88ADF804201A4AADF8003091428A
S31508008FF020D1DA0701D52324E8E79B0748BF4FF4B9
S315080090007F430DF1060248BFADF804307F210223E5
S3150800901043F2602021F038FA4FF6FF73BDF80620B8
S315080090209A42E8D1022243F2602001A920F04AFCC4
S3150800903002B010BD2124C9E70D510308FB500308EF
S31508009040085103082E510308EB5003084051030842
S315080090506C5103081FD1BACA7FB50023CDE9033383
S31508009060CDE901334FF4FA630093012304481A4605
S315080090700449B0F8AA02FFF705FE07B05DF804FB3D
S31508009080302500207B51030830B589B0002103AA9A
S315080090901CF068FAFEF76CFC054628B9144A15490F
S315080090A0FFF7F0FD09B030BD0024134B134ACDE994
S315080090B005434FF6FD7003ABCDE9004405A9ADF8AD
S315080090C01C4018F031F90E4B024693F8A43330B120
S315080090D00346074A20460B49FFF7D4FDE2E74FF659
S315080090E0FC71284643F080031DF0AFF8DAE700BFAD
S315080090F07D4F0308884F0308010000049E510308AA
S3150800910030250020A2510308D0E9023253F8223054
S3150800911070B51D88FEF72CFC044620B9BDE87040E2
S315080091200C4A0D49AEE528461CF0B6FB0B4B93F8E6
S31508009130A423034628B1BDE870400020054A084923
S31508009140A0E529462046BDE8704042F0800301228A
S315080091501DF07BB87D4F0308884F03083025002093
S31508009160CF51030854220021014828F0B3BD00BF9F
S31508009170D6280020F6E710B5074C5422FF2104F242
S31508009180FA3028F0A7FD04F24E405422BDE81040FC
S31508009190FF2128F09FBD00BF3025002000232DE9C0
S315080091A0F04FB648B64AB74E121AC6E91402013A43
S315080091B0A5B0D20886F86C307367C6E91900FDF7C2
S315080091C0BBFD428008230122C6E916333266EFF357
S315080091D01183302181F3118896F8A214002940F0F2
S315080091E01A8486F8A22483F31188BFF36F8F6FF071
S315080091F0040420460134052164B20DF037FD5D2CC8
S31508009200F7D14FF0004907224AF6CD37DFF89882A2
S315080092109D4C9E4BC8F86490656C0B202764DA63F6
S315080092200BF094FB63689A4923F4F87343F480734C
S31508009230636040F20913A36040F20313236100231D
S31508009240C8F86490626C05F0010502F00102276413
S31508009250206B070740F1E7838B4240F0E2838A4B95
S31508009260002A40F0F3830DB18A4A1A644FF000428F
S31508009270894B854C5D6E03F580535A664AF6CD33A5
S31508009280676C802023640BF061FB236AFF0723F0D9
S315080092900F0343F00C03236248BF7E4B7F4848BF49
S315080092A02364002DA2BF4FF000427D4B5A662BF077
S315080092B051F97C4AD2F84C3113F4802300F0C98363
S315080092C04FF07E6292F89C3092F99C20002AB8BF33
S315080092D03F234FF40001744A022051664FF4D151DE
S315080092E002F5B832516271494F2B486028BF4F23A7
S315080092F0012001F58051DBB24860116911F4803113
S31508009300FBD143F48073536140F20143684D12ACBC
S31508009310936051600FCD0FC40FCD0FC495E80300BD
S3150800932084E803005F4B0DF1480BD3F84C2112F487
S31508009330002F00F09183A3F5FE431B88B3F5807FC9
S3150800934028BF8C235B4A8DF8613092F900201344BC
S3150800935083F308038DF86030574A584B1A604E4B12
S315080093601B6F03F00703032B01D129F02BFB1DF01C
S31508009370E4FB032815D04FF480124B4B58465A6627
S3150800938045F60E024E4BC3F880204FF0A06203F557
S3150800939080539A624FF4803203F580539A620BF039
S315080093A02DFA4FF4C0223F4BD3F898403E4B5A66ED
S315080093B003F598335A68012A00F052831DF0BDFB65
S315080093C005280CD100213F480AF0F2FF324A136FF4
S315080093D043F4806313674FF48032334B1A673A4F6E
S315080093E03A4B3D6824F040749D4202D8354821F036
S315080093F0A5F8374BDA6812F0060FFBD19A689C601D
S3150800940099684C4014F4F81F0DBF2E4C9A602C46F0
S315080094103C601DF092FB05281DD129F0D3FA0746BA
S315080094200AF052FE0128D4BF0121002138460AF06D
S31508009430BFFF4FF4C0700BF00FF82649164A884252
S3150800944094BF00200120136F23F4806343EA80232E
S3150800945013670BF0C3F9AC4202D8002021F06EF86E
S315080094604FF40022104C0F4B1B48D3F8C0306266ED
S315080094704FF0B44223F0407393602FE0E04400209D
S3150800948000000820302500200080095000400050C8
S3150800949040420F003254FFFF00800050889F0308A7
S315080094A000A000500080E00F00900050001002500D
S315080094B04CA103083C400020C01753023840002046
S315080094C00040005A00B4C40434400020FFB3C4046A
S315080094D00000015080F0FA0274A103082BF03AF854
S315080094E04FF4800302226366C64B5A609A6812F4E8
S315080094F080320592FAD15A62059A5A600DF0C6FA78
S31508009500EFF3108472B6C0482BF024F896F8A3340B
S31508009510002B40F0C982FEF7C3FA002800F0A682A5
S3150800952020462AF031FFFEF7BBFAB84DAA6C511C4B
S3150800953008BFB74B4FF4003108BFD3F894204FF05B
S31508009540502308BFAA641967D30700F1B382012123
S315080095500C46084604FA00F3134001F1010100F035
S31508009560AB82AC4B03EB4003B3F82034AA49062B75
S315080095700A88498840F0A7824FF20F03994240F0C3
S315080095809F82B2F5406F28BF4FF4C0624CF23C335D
S31508009590A6F8A424A04A5380A04A536A43F4702329
S315080095A05362EFF308834FF0CD319D4A043B934253
S315080095B080F09A820222964B1A67FEF771FA18B162
S315080095C06B21984829F0B0FA1DF001FD4FF40050C0
S315080095D021F0CAFA4FF40053934CC6F8A804C6F80B
S315080095E0AC34002800F08382D4F8A8341BB9DE21F5
S315080095F08E4829F099FAD4F8AC34D4F8A82423F084
S3150800960001031344C4F8B024C4F8B434C4F8B82425
S31508009610002A40F07782F821844829F085FA7A48AA
S315080096202AF098FF03213C200DF020FB4FF480130D
S315080096304FF004084FF080527D4F7E4E7B66DFF870
S315080096402CA27D4BC6F874A03C20C6F87480C6F8D8
S3150800965070A0C6F87080C3F884210DF01BFB4FF08C
S315080096600072764B6848C3F874A0C3F87480B26277
S315080096704FF480529A622AF06DFF0BF071FB4FF09F
S3150800968000639B6ADFF8C09103F17842B2F5C04FD8
S3150800969050D21A686A4B9A424CD194F8BC6416F0B8
S315080096A0FD0647D194F8BD34002B00F06D820223E5
S315080096B084F8BD344FF000639B6ADB69984794F8D9
S315080096C0BD840746B8F1010F40F0D68208F065FD63
S315080096D0013040F0BF82D4F8C4245A4B1A66D4F835
S315080096E0C8245A66D4F8CC249A66D4F8D024C3F889
S315080096F07021D4F8D4241A64D4F8D8245A64D4F837
S31508009700DC249A64D4F8E824D00700F1B282D4F8AD
S31508009710E0244D4B5A66D4F8E4249A66D4F8C0344B
S3150800972083F31188BFF36F8F84F8BD6417B90123DB
S3150800973084F8BC34454946480AF0F8FB32482AF012
S3150800974009FF4FF44073012204215846ADF848300A
S3150800975008F042FE01223F4BC3F84424EFF311867A
S31508009760302383F311884FF460700AF075FE86F390
S315080097701188BFF36F8F294B00F5D520D3F8F02059
S3150800978000F2FC4042F00102C3F8F020D3F8FC20B6
S31508009790294E42F08072C3F8FC202F4AA3F55D4398
S315080097A01A602E4B0222B0FBF3F02D4B01381861DC
S315080097B0C3F8F0204FF48072C3F804234FF06043D7
S315080097C0284A1148C3F8B02F274AC3F8802ED3F881
S315080097D0002E42F48072C3F8002EFF2283F8202060
S315080097E0D3F8002E22F48072C3F8002E2AF0B2FEB7
S315080097F073681A063CD480232720C6F884310DF0F6
S3150800980049FA35E000400250044603086440002047
S31508009810004000505C9D0308783E002000ED00E003
S3150800982008000020E8460308302500207D5203087A
S31508009830009000500060005A00E100E00050005A15
S3150800984007B0CD5E008000440080005040400020F4
S315080098501814002000D00350FF030040F8590D00EB
S31508009860000004E055CEACC509000100010000A0C7
S315080098707368DB0506D44FF480732820C6F8843154
S315080098800DF008FAA24808F023FE2E6DA14B9E4261
S315080098900BD0A14B9E4208D003F580439E4204D0CC
S315080098A003F580439E4240F0BD82DC469B4F0FCFB6
S315080098B0ACE80F0097E80F0007F1100E8CE80F00D0
S315080098C0BEE80F000DF1340CACE80F00842200212D
S315080098D09348CDF844B028F0FDF98E4B9E4200F02F
S315080098E0CD818D4B9E4200F06B8203F580439E42EC
S315080098F000F06E8203F580439E4200F07182894E25
S3150800990033681BB988498948FEF788F83368C4F86C
S315080099106C35874B33604FF060460227D6F8003E19
S31508009920584643F48073C6F8003E824BCDE912735D
S315080099301DF01AFBD6F8003E23F48073C6F8003EE5
S31508009940FEF7AEF8064630BB7B482AF003FE7B4B93
S315080099507B4A30461A624FF41672C3F83C7103F517
S31508009960EA239E64774B78491B68784F5343784AB5
S3150800997003F5742303F23F23B3FBF2F3754A13602E
S315080099800B681668013047F8046BC0B216680A28D7
S315080099903344F6D10B60704E96F87D1596F87C35F3
S315080099A0022901D1072B19D0DF0703D443F001039D
S315080099B086F87C3596F87C3598075FBF012243F018
S315080099C0020386F87C3586F8402E96F87C2511B970
S315080099D0D10701F1A080530741F1A5800DF020FEC3
S315080099E05E495F48FEF71AF807F05CFC95F8882090
S315080099F095F89830022A00F25683002A40F05A83D6
S31508009A00022B00F27983002B00F07983D5F8903089
S31508009A10C6F8903573E383F31188BFF36F8FFFF7AA
S31508009A20F0BB013314E48B423FF419AC20214D4BB3
S31508009A3099620121A3F5805359604B4B4B49886ABB
S31508009A4080063FF50CAC013BF9D108E4484A1A6494
S31508009A5009E4D2F850213CE4D3F85031DBB271E482
S31508009A6044494A605A689007FCD4A7E432482AF069
S31508009A7071FD324B404ADA610122C3F844214FF4A2
S31508009A80807203F5EA239A64059BC6F85C32B367CD
S31508009A902C4B1B68F361394B5A6F42F001025A6727
S31508009AA0DA6E22F03002DA66FCF7F4FC012386F857
S31508009AB0A33435E5002054E510297FF44AAD55E571
S31508009AC04FF4C06262E540F20720834209D14FF2A3
S31508009AD00F00814205D19A4202BF4CF23C32284916
S31508009AE04A80A6F8A43457E543F804195FE540F21E
S31508009AF09D11244829F018F8D6F8AC34002B3FF409
S31508009B0076AD71E505F0F6FD64287FF684AD86E549
S31508009B10B04000200000015B00C008509CA103086B
S31508009B201C2A002034130020D4400020A42A002038
S31508009B309C2A0020006A181078A1030800800350A8
S31508009B40010E0C00881400209C140020A01400208C
S31508009B5040420F00C814002030250020DC400020B9
S31508009B60B82A002000A0095041420F000080095081
S31508009B703254FFFF00E00150010D0C000040005078
S31508009B80783E0020115203080121CDE908660D969A
S31508009B9084F8BD14EFF31183302282F31188C4F8D8
S31508009BA0C034D9F86430C4F8E034D9F86830C4F859
S31508009BB0E4344FF48043BB66A74B5A68C4F8E824DC
S31508009BC0A64A9A601A6EC4F8C4245A6EC4F8C82401
S31508009BD09A6EC4F8CC24D3F87021C4F8D0241A6C31
S31508009BE0C4F8D4245A6CC4F8D8249A6CC4F8DC2473
S31508009BF09B4A106C1864506C5864926C9A64796627
S31508009C001B6E1F041BD5974AD368D807FCD44FF0A0
S31508009C1000639F6A07F17843B3F5C04F07D2002364
S31508009C20584614931DF06BF9149B5B050CD4089ADF
S31508009C308D4B1A66099A5A660D9A9A663AE58B4AC0
S31508009C40D368D907FCD4E2E73B6C0DAA09A908A892
S31508009C509847ECE708F0A1FA40F2011398423FF45E
S31508009C603AAD834B7F4AC3F86480D368D907FCD4DE
S31508009C7031E500229A604AE5012655E54FF470233E
S31508009C804FF000087B4AA7F5D877C4F81C3501239E
S31508009C90DFF814C2C4F8EC64774EC4F8182584F8C3
S31508009CA04835BCE80F000FC69CE80F0086E80F0091
S31508009CB095F86930C4F83C75012B08BF8DF84D300E
S31508009CC095F86A302BB1012B40F0928004238DF869
S31508009CD0423095F86820EB6D012A4FF0000240F0FB
S31508009CE08F8066498DF841208B429CBF05238DF8ED
S31508009CF06530634B63480F932AF02CFCB8682AF04A
S31508009D0029FC2B6EDA1F092A3FF6F9AD063B8DF8BA
S31508009D10403095F8683033B995F86B30B3FA83F369
S31508009D205B098DF84C30584820F01CFC00287FF45D
S31508009D30E6AD95F8583095F854204FEA481842EAA7
S31508009D40034208F1A04303F57033C3F8AC2495F831
S31508009D50591095F8552042EA0142C3F8A42495F80B
S31508009D605A1095F8562042EA0142C3F8A82495F8F5
S31508009D706B20002A47D01C22286DC3F894240DA90D
S31508009D800AF018FEEFF31183302282F3118894F853
S31508009D907025002A41D1012284F8702583F31188A1
S31508009DA0BFF36F8FFDF77CFE0CF0F2FF37481DF00E
S31508009DB04FF800287FF4A3AD35481DF049F89EE515
S31508009DC04FF480134FF00108324AA7F5D2775CE7C3
S31508009DD04FF498134FF002082F4AA7F5CC7754E7AB
S31508009DE04FF4A0134FF003082C4AA7F5C6774CE7A3
S31508009DF0022B3FF46CAF032B7FF481AD062366E795
S31508009E008DF8642076E795F85B1095F8572042EAB6
S31508009E100142C3F898241D22AEE783F31188BFF3E5
S31508009E206F8FC1E784220021174827F053FF1C4B88
S31508009E309E423DD003F580439E4200F0138103F510
S31508009E4080439E427FF467AD4FF4B0130227DFF8D4
S31508009E505C90144A32E000BF0080004455CEAC0046
S31508009E6000C0005400000440009000440000045064
S31508009E700090004001000F00202A00203F4B4C00B4
S31508009E8040420F00044603081C2A0020402A0020EE
S31508009E90442A0020010010000100130001001400EC
S31508009EA000000A5004001600B440002044A003082D
S31508009EB04FF480230027DFF82C92834ADFF828C264
S31508009EC0DFF828E2C4F81825C4F81C35BEE80F00E8
S31508009ED0ACE80F009EE80F008CE80F0095F86A3092
S31508009EE095F869A0C4F83C95C4F8EC64002B00F01A
S31508009EF0C080012B00F0BF80022B00F0BF80032B2F
S31508009F007FF409AD4FF4407895F868206F48012A28
S31508009F1013BFEB6D4FF4E1334FF0000E069316BFF7
S31508009F200123CDE9063E07932AF014FBD9F8080069
S31508009F302AF010FBD5F86090A9F104020C2A3FF626
S31508009F40EAAC30460BF0A8F9012106F580525160BB
S31508009F50AAEB010CB268DCF1000A4AEB0C0A42EAE9
S31508009F608A2A48EA01024AEA0202B260B3684FF452
S31508009F702070B360A9F1030343F48053F3600AF039
S31508009F806BFA069B01384FEA4308B0FBF8F0079BCB
S31508009F900002F0610BB1102373610023B36505233A
S31508009FA07361AB6E4A4E23F47F0323F47F4333B9C0
S31508009FB04FF48032D6F8EC3403F580539A6095F85E
S31508009FC0583095F8540095F8551040EA034095F82E
S31508009FD0593095F8562041EA034195F86BE095F813
S31508009FE05A30DFF80CC142EA03427B01BEF1000F8A
S31508009FF047D19C44CCF83808CCF83018CCF834282B
S3150800A00095F85B1095F8572003F1A04342EA014200
S3150800A01003F57033C3F824281D22C3F820282D48D9
S3150800A02020F0A0FA00287FF476ACEFF311833022F3
S3150800A03082F3118896F8702582BB012286F870256E
S3150800A04083F31188BFF36F8FFDF72AFD0CF0A0FE8E
S3150800A05021481CF0FDFE00287FF45DAC1F481CF06B
S3150800A060F7FE58E44FF4A8130127DFF888901C4A36
S3150800A07024E7984648E74FF4007845E74FF4807898
S3150800A08042E76344C3F83808C3F83018C3F83428DD
S3150800A0901C2341377F014CF80730C0E783F311884A
S3150800A0A0BFF36F8FD2E7032A04BFD5F88020C6F81E
S3150800A0B09025A5E4D5F88010022BC6F890151ED871
S3150800A0C0EBB1022A1BD0A1E40200040004460308EF
S3150800A0D0302500201C2A0020402A0020442A00207F
S3150800A0E0020015002CA00308202A0020B4400020F6
S3150800A0F000C0035038A00308032B3FF487AC4FF485
S3150800A1002F720021C448D4F8907527F0E3FD802308
S3150800A1100122C4F82036C14B84F81C26C4F8183628
S3150800A12095F8A430C4F8447833B9C5F8A030BC4BC8
S3150800A13085F8A420C4F830364FF0FF37C4F84878BD
S3150800A1401CF045FF012027F062FE20F015FF4FF0B6
S3150800A150020CB44BDFF814E3CDE912C34FF00073D9
S3150800A160CDE914E307233846AF4F5946169327F02F
S3150800A17094FED7F8FC311020C3F30743089305F083
S3150800A180ACFF10F0800F4FF0000000F0DD8405F002
S3150800A190A4FF00060CD5089B802B40F0CA843B6AB6
S3150800A1A013F0020F00F0E484FB699B0740F1E0849A
S3150800A1B09E4828F02CFAFCF7D1FA8046002840F091
S3150800A1C0D78408237F214BF23460994A20F05CF942
S3150800A1D001234746C4F8483E964BC4F8448E84F893
S3150800A1E0D48208F10108B8F1080F5F609F8043F830
S3150800A1F0087FF6D1482200218F4827F06BFD4FF6DD
S3150800A200FE73A4F83C336FF48033802200218B4818
S3150800A210C4F8303327F05EFD894BC4E9C777C4E933
S3150800A220DD3784F8187384F82473C4F8287384F81F
S3150800A2307C73FCF757FCFF23002184F8D40E2C22EC
S3150800A240584684F8D53E27F045FD64234FF0023C76
S3150800A2500121CDE914C317930B23B4F8D67E8DF8E4
S3150800A2604C100F408DF8703040F03581084629F0C3
S3150800A27025F90A2384F8D83E4FF42873ADF84E30F2
S3150800A2804FF0FF33C4F864326E4B6F4A1B886F4930
S3150800A290A5F8BC306E4B6F481B68A5F8C270C5F8A8
S3150800A2A0C4306D4BC5F8CC701B88A5F8BE306B4B17
S3150800A2B01B68C5F8C83026F06FFC20B140F267214C
S3150800A2C0674828F031FC0521D6F8640228F0EDF934
S3150800A2D020B14FF41E71624828F026FCD4F86402B7
S3150800A2E020F0CAFC5F49D4F8640227F079FD0C27F0
S3150800A2F029F0CAF87843189029F0C6F878435946E1
S3150800A3001690D4F8640220F089FC20B14FF4247129
S3150800A310534828F009FC00224549D6F8640227F07C
S3150800A320D7FD20B140F292214D4828F0FDFB40F2BE
S3150800A3300353A4F8DC3E052395F9D01084F8DE3ED5
S3150800A3407F2929D14FF6FF7341F26400ADF8343006
S3150800A3500DAA022320F098F8BDF83410CF054CBF9B
S3150800A3606FF04A0149B2EFF31187302383F311885E
S3150800A370B6F8D63E85F8D010D80709D5D6F86402BF
S3150800A38027F013FD20B140F67361354828F0CCFB61
S3150800A39087F31188BFF36F8F95F8D03084F8DF3EC6
S3150800A3A029F072F800EB80008000A4F8E00E29F08E
S3150800A3B06BF80023C0004FF0FF31A4F8E20EC4F892
S3150800A3C0E43E4FF0FF3012A3D3E9002329F030F81A
S3150800A3D02549D4F8640227F034FDD4F864020DA99F
S3150800A3E028F00AFA20B140F2CB211D4828F09CFB40
S3150800A3F00422D6F8640209A927F0C7FC042837D036
S3150800A40040F2D221164828F08FFB31E0AFF30080E6
S3150800A4100A0020FF42030000C42A0020F34503086F
S3150800A42004410020006A18000080E00F690345EC2B
S3150800A4305A250020042800205C28002084330020A8
S3150800A4400000FFFF88FB030845350308104100207C
S3150800A45090FB03089427002086FB03088CFB03085F
S3150800A46091520308D0A10308A5320308000206008A
S3150800A47009A81BF02EFCFBF72FFFEFF311873023FB
S3150800A48083F31188012385F8D130B6F8D63EDA076A
S3150800A49004D50021D6F8640228F0FEF987F311885E
S3150800A4A0BFF36F8FB6F8D63EDB0712D5002241F20E
S3150800A4B00D01D848002328F0BBFF0822D6F864020D
S3150800A4C0114627F04DFC20B140F63171D24828F0EC
S3150800A4D02BFB05F08DF81BF0BAFD0027CF4805F0D9
S3150800A4E067FB4FF4F053342239465846A4F8EC3E3D
S3150800A4F0A4F8E87EA4F8EA7E84F8EE7E27F0EAFB64
S3150800A5000B238DF848306FF4803313934FF6FE73A0
S3150800A510ADF8583003238DF86530C14BC14A1A93FC
S3150800A520C14B51682093C14BD4F82A002193C04BE4
S3150800A530DFF888932293BF4BDFF88483239314AB09
S3150800A540CDF86C90CDF87C8003C3594638461CF08C
S3150800A550ADFD594601201CF0A9FD0422594638468E
S3150800A56027F013FC042803D0D821B34828F0DCFAD6
S3150800A5701298FBF7B1FE03201FF06EFB15F074F975
S3150800A5809022FF21AD4827F0A5FBAD4BAD48C4F896
S3150800A590B43F0023C4E99C03AB48AC4FC4F8D40FBE
S3150800A5A0AB48AC49C4F8F40FAB48AC4A47E93903A1
S3150800A5B0AB48C4E99E2347E93103AA4847E937234C
S3150800A5C047E92F23C1F8BC31C4F8B83FC4F8C03FE7
S3150800A5D0C4F8D83FC4F8E03FC4F8F83FC4F8B01F41
S3150800A5E0C4F86C12C4F8D01FC4F8F01F47F8E81C6A
S3150800A5F047F8C81C47F8A81CC4F8BC2FC4F8DC2FB9
S3150800A600C4F8FC2F47E92903974847E92723C4E9F3
S3150800A610E2039648C4E9E42347E91F23A1F6063274
S3150800A620C4F83E3347E921035360C4F8841347F856
S3150800A630881CFCF757FA07F8680CFCF753FA05224A
S3150800A640844907F8670C84F8B122A1F61831482224
S3150800A650584628F038F90023854A73491C92854ADA
S3150800A66020911D927149724A1846CDE92112CDE909
S3150800A6701E28704A5946CDF86C9023921CF016FD98
S3150800A6804FF0300C4FF0010E0023EFF311808CF3DE
S3150800A6901188D6F8441E002940F06F8280F311888D
S3150800A6A0BFF36F8F0023D6F8489EB9F1010F40F02B
S3150800A6B07682FF204FF00008C4F8489E15F0B6FED3
S3150800A6C00FF0D6FF15F070FC0FF07EFD14F0D8FBE6
S3150800A6D048464FF0FF092B7D0B2243F004036649D9
S3150800A6E0A4F88E32022307F8668C07F8658C05F005
S3150800A6F093FC1C224946614807F8628C07F8619C5E
S3150800A70027F0E8FA4FF6FD7307F8448C27F8423C21
S3150800A71007F8438C07F8408C07F83F8C10F08AF846
S3150800A72032224146564807F83E8C07F83D8C27F0FA
S3150800A730D1FA544805F03CFA14F06FFC524B142237
S3150800A7404946524847F8083C27F0C4FA0023012234
S3150800A75098463E4FDFF86C91C7E9043207F1200AA4
S3150800A7605046494608F101081AF08AFFB8F1040F65
S3150800A7700AF1200AF4D1464946481AF081FF4649AB
S3150800A78046481AF07DFF464946481AF079FFFEF713
S3150800A790E9FCFEF7F0FCB4F8A43443491A0AB3F509
S3150800A7A0406F424B4FF0000038BF03EB8203FEF7C1
S3150800A7B069FA3F4B3F4AC6F8AC32002319460133C3
S3150800A7C00A2B918042F8081BF9D14FF6FF73A4F8BB
S3150800A7D0AE31A4F8B031384B4FF00108C4F8B431A3
S3150800A7E04FF48073A4F8B831022387F8303187F81C
S3150800A7F0313185F81431052384F8B13241F2490321
S3150800A800A5F81631522387F83211D4F864020021CC
S3150800A8105AE000BF400D030091520308384100205A
S3150800A820DD9701085A250020BD950108E5A5010810
S3150800A83079940108DD930108E846030820340020CE
S3150800A8403DB2010851AA0108FDB4010828360020C6
S3150800A85009410208743300209101020803460308DF
S3150800A860A10B020845780208159D01082D3C02082F
S3150800A870ED95010883D10008C4350020C8350020AD
S3150800A880EC350020584100202D020108243600200E
S3150800A89057BA0008C836002041730008BC260020B5
S3150800A8A0C9B40008E8360020AB52030850A00308D4
S3150800A8B0D6A1030808370020D8A10308CD940108BB
S3150800A8C061C6010839BE0008A5F81831A5F81A317D
S3150800A8D084F8BC8184F8AC8184F8B28127F003FB44
S3150800A8E095F84020D4F8303632B91A46B34B85F875
S3150800A8F04080EA63C6F830364FF0000A96F8BC3155
S3150800A900DFF8F4820693069A5FFA8AF39A4200F20F
S3150800A9104C81AB4D12B1012385F833310027DFF89E
S3150800A920D88296F8BC21FBB29A4200F2AF814FF664
S3150800A930FF737381B381F381D6F8AC32ABB10021D2
S3150800A94012A805F0E5FB80B9D6F8AC321A789DF85E
S3150800A95048309A4209D0D91E032906D9D11E0129A1
S3150800A96003D9012A4ED1022B4CD1337C002B49D175
S3150800A97029F0C0FB0746002844D101230D221846BA
S3150800A980594605F049FB8F4B9DF84820394683F810
S3150800A9901C21032309A8A5F8343105F0B9FB88BBA7
S3150800A9A00DA810F069F90D9B5946BDF83A001493A5
S3150800A9B010F02AF9074628BB9DF8240010F04FF836
S3150800A9C096F8B0325A1E012A00F26C8110F0A2FBEA
S3150800A9D096F8B032033B012B01D810F00DFC0FF0AE
S3150800A9E0A5FF96F8B032033B012B0BD8B5F8340116
S3150800A9F010F0020700F07281002305220120724937
S3150800AA0010F065F9B4F8A434704A190A02EB810209
S3150800AA10D2F88424D9B202EB8102009201216C4A51
S3150800AA200420FDF7B7F80123B4F8A424120A9340CA
S3150800AA3040F2A172134240F06081EFF3108472B6BF
S3150800AA40012029F023FC204629F09EFC6149624832
S3150800AA50FCF7E4FF20F090FAEFF3108472B60120B9
S3150800AA6029F014FC204629F08FFC5C495C48FCF769
S3150800AA70D5FF00201EF08EFE01201EF08BFE0DA8CD
S3150800AA8003F02EFD02230DA88DF8343005F0AAFF39
S3150800AA9010B31A230822012012A905F0BDFA0DF1F8
S3150800AAA0520309AA15461E460DF162071446186890
S3150800AAB05968083303C4BB422246F7D129460DA874
S3150800AAC005F066FC3E4C0546002800F0C88294F85E
S3150800AAD04931013384F84931002421462346414A45
S3150800AAE0501F12F8015B0133294410F8015BDBB2F1
S3150800AAF02C44052B89B2A4B2F3D151EA040300F021
S3150800AB00BF82394804F04AFC2146384825B0BDE8DA
S3150800AB10F04F04F043BC3648FCF70EF9022386F8DA
S3150800AB207D35FEF758BF42F0040286F87C25FEF70D
S3150800AB3055BF089B812B1BD1D7F80C31590017D567
S3150800AB40D7F80C31FFF731BB05F0C7FA02067FF5D7
S3150800AB502FAB089B802B04D13B6A13F0010FFFF73C
S3150800AB6021BB089B812B03D1D7F80C31002BE7DBDF
S3150800AB704621204827F0D8FFE8E50A69C6F8443E8A
S3150800AB80C1F810E080F31188BFF36F8F012A3FF4F4
S3150800AB9089AD114612690B61012AFAD175E5D9F812
S3150800ABA01020C9F8103091467FE598F80C708FB3DD
S3150800ABB00AF1010A08F11008A5E600BFA040002026
S3150800ABC0283600206440002000F8FF075C9D030833
S3150800ABD0C352030884410020603700208C410020BE
S3150800ABE06837002075370020435603086A5603085D
S3150800ABF0B02A00203A480308DC26002014224FF029
S3150800AC0000091B6802FB05352A891FFA89F39A424F
S3150800AC1007D80137D8F80830FDB21A79AA42EDD814
S3150800AC20C6E70C221FFA89F353436868C1180A79E4
S3150800AC3012F0100F22D198F800C012F0400F8DF8CC
S3150800AC4048C0B5F800C0ADF84AC014BF4FF0800C34
S3150800AC504FF0400C8DF84CC0C35A2846ADF84E301C
S3150800AC60FCF7CEFBADF850005007CB7809D5022B80
S3150800AC70896800D9096812A81AF012FD09F10109B4
S3150800AC80C2E7022B8CBF89680831F4E7180106EB86
S3150800AC90031393F8B931DA0702D54044FCF73AFEB4
S3150800ACA001373EE6033B012B05D8384610F006FA75
S3150800ACB000287FF48BAE96F8B032053B012B3FF6A1
S3150800ACC0A1AE10F027FA0FF031FE96F8B032052B38
S3150800ACD00CBF0420052006F053F893E602230B2246
S3150800ACE00120AA4905F098F935F8643C5B077FF519
S3150800ACF089AE38460FF022F884E6A548D0E90E3228
S3150800AD005F0748BF0025D0E9131448BFA846069434
S3150800AD10D0F840A05FBFD0F8548092469D4D06916A
S3150800AD2054BFDFF8E892DFF8E89213F0080F9A4B61
S3150800AD309A4A18BF1A46B5EB08071FBF6423069937
S3150800AD407C0803FB014416BFB4FBF7F43C46A4B2E7
S3150800AD504B4693490020CDE9015ACDF80080BFB291
S3150800AD601BF0A4FC23460020CDE90097BDF8182067
S3150800AD708C491BF09BFC554501D3D04504D94A465E
S3150800AD80002089491BF092FC814CD4E918301843FD
S3150800AD90A36E184322D185491BF088FC00208449FC
S3150800ADA01BF084FC40F60522B6F8A43493420ED86C
S3150800ADB0B3F5206F34D840F2025293423DD040F2A8
S3150800ADC00172934243D040F20152934230D0794CFB
S3150800ADD0794D7A4F7A4EDFF83C823AE1002079497C
S3150800ADE01BF064FC00274FF00109DFF82CA204F1E0
S3150800ADF004080025D8F85C2009FA05F3134204D0A4
S3150800AE00514600207A191BF051FC0135202DF1D14D
S3150800AE102037602F08F10408EBD100206449BBE70E
S3150800AE20A3F60223032B19D8DFE803F0325E91ADAF
S3150800AE30654900201BF03AFCC9E7644900201BF06D
S3150800AE4035FC626C624900201BF030FCBFE76149A3
S3150800AE50D4E9262300201BF029FCB8E700205E4928
S3150800AE601BF024FC94F870309E0703D500205B493C
S3150800AE701BF01CFC94F873305D0603D50020584976
S3150800AE801BF014FC94F97330002BA0DA5549D0E76F
S3150800AE90002055491BF00AFC94F86C30980704D03A
S3150800AEA00020626C4A491BF001FC94F96C30002BB7
S3150800AEB004DA0020A26F4D491BF0F8FB0025012695
S3150800AEC04B4FDFF83881E26E06FA05F3134207D0D6
S3150800AED057F8252013781BB1414600201BF0E6FBE6
S3150800AEE00135082DEFD172E7424900201BF0DEFB41
S3150800AEF037490020626C1BF0D9FB94F86D3059076E
S3150800AF0003D500203C491BF0D1FB94F96D30002B8A
S3150800AF1004DA0020A26F35491BF0C8FB0825344E19
S3150800AF20364FE36EEB40DA0707D556F82520137837
S3150800AF301BB1394600201BF0B9FB0135102DF0D1A5
S3150800AF4094F86C0000287FF442AF2D4972E72D492A
S3150800AF5000201BF0ABFB0020626C1D491BF0A6FB12
S3150800AF601025234E254FE36EEB40DB0707D556F831
S3150800AF70252013781BB1394600201BF097FB0135B5
S3150800AF801A2DF0D123E7204958E700BFC435002021
S3150800AF90783E0020081000200252030809520308D0
S3150800AFA0E452030816530308505303086F53030863
S3150800AFB0E646030880A003087C3E002039560308AD
S3150800AFC0E546030885530308B5530308F3530308F6
S3150800AFD0245403083F5403085B54030874540308B5
S3150800AFE0AF540308E35403082055030846550308DD
S3150800AFF010A203086D550308855503086455030810
S3150800B000CC550308FD55030817560308FD510308D8
S3150800B01040580308615D0308AD56030822463946C1
S3150800B020002055F8043B1BF041FB227823460134E7
S3150800B030002AFAD15B7883B1059B03F00303032B3F
S3150800B0400CBF3146414600201BF030FB059B0133FF
S3150800B05005932378002BE1D1EFE43146F3E710227C
S3150800B060FF21304626F036FE1A230822594628467E
S3150800B07004F0D2FF94F84E31013384F84E312BE5B3
S3150800B08025B0BDE8F08FFEF776B807B5D0E90232ED
S3150800B09053F822301A78292A12D80B490B4B01EBA0
S3150800B0A04201B1F8521103EB8203D3F81C35009123
S3150800B0B007490020002B08BF0B460649FDF7E2FDAD
S3150800B0C003B05DF804FB00BF283600205C9D03082A
S3150800B0D0A2560308A656030838B5D0E9023253F833
S3150800B0E0221003EB82035B680D78002005491C8853
S3150800B0F0FDF7C8FD044B03EB4503A3F8FA43A3F891
S3150800B1004E4438BDB1560308302500202DE9F341D9
S3150800B11000240C4E0C4DDFF838800C4F56F8043BD3
S3150800B12035F8022B002B08BF4346009239462246C3
S3150800B13000200134FDF7A6FD2A2CEFD102B0BDE8A8
S3150800B140F08100BF78A203087E290020A6560308CE
S3150800B150A25603082DE9F34100240C4E0C4DDFF8E6
S3150800B16038800C4F56F8043B35F8022B002B08BFE5
S3150800B170434600923946224600200134FDF782FDF7
S3150800B1802A2CEFD102B0BDE8F08100BF78A20308EF
S3150800B1907A370020A6560308A256030838B5542560
S3150800B1A0064C2A462146064827F08DFB2A462046A5
S3150800B1B0002126F08FFDBDE83840CBE7D6280020D1
S3150800B1C07A37002008B554220349044827F07BFB48
S3150800B1D0BDE80840BEE700BFD62800207A37002021
S3150800B1E070B5D0E902456B1EDBB254F82300032282
S3150800B1F01D4927F058FB54F8253004EB85041978C7
S3150800B20063681A78A2F10B030F2B05D9174900209A
S3150800B210BDE87040FDF736BD012911D1144C9140A7
S3150800B220D4F8303148B90B43124AC4F830310020FB
S3150800B230BDE870401049FDF725BD23EA0103F3E791
S3150800B24002290ED101230A4903FA02F2D1F8343150
S3150800B25020B91343094AC1F83431E8E723EA02035F
S3150800B260F8E70A460649D2E7CB560308CF5603083D
S3150800B27064400020E5560308ED5603080057030806
S3150800B2800A57030807B5D0E9023103EB810253F8E0
S3150800B2902130526818780B4B0128A3F1040108BF26
S3150800B2A00B4612684FF000001A600092064A074BD8
S3150800B2B0074918BF1346074AFDF7E4FC03B05DF8D3
S3150800B2C004FB00BF98410020255703081D570308B3
S3150800B2D02F57030824A3030825232DE9F743002441
S3150800B2E0DFF8B880264F274E16220021054608F5B6
S3150800B2F0D370737626F0EEFCD7F8AC3203201B78B1
S3150800B300C8F8BC41013B012B8CBF4FF001094FF037
S3150800B310040904F073FF97F8E4300A2B2ED00420B2
S3150800B32098F8C021013307EB021181F8F00016489E
S3150800B33081F8E890C1F8F400C1F8EC500A2101320E
S3150800B340D2B2B2FBF1F001FB102207F5C67088F8FD
S3150800B350C02187F8E4301AF033FBD6F830110B4ACF
S3150800B3600B4B0020A94218BF13460095094A0A4903
S3150800B370FDF788FC204603B0BDE8F0830124ECE71E
S3150800B380302500206440002045B9000825570308E9
S3150800B3901D57030824A30308495703082836002025
S3150800B3A02DE9F0410546174C0020174A1749FDF7C5
S3150800B3B069FC1749174A94F8C3812B46002D08BF24
S3150800B3C00A4694F8C16194F8C27100201249FDF743
S3150800B3D059FC424600201149FDF754FC3B463246CB
S3150800B3E000200F49FDF74EFC002384F8C33184F88A
S3150800B3F0C23184F8C13104F1A000BDE8F0411AF069
S3150800B4004FBC00BF2836002024A303088B57030827
S3150800B4107757030884570308A2570308CA5703082F
S3150800B420E257030807B50A4B93F8C3316BB11720E7
S3150800B430FFF7B6FF002300930020064B064A07498C
S3150800B440FDF720FC03B05DF804FB0223F3E700BF19
S3150800B450283600200658030824A303080B580308B7
S3150800B46008B5164A92F8C331042B0ED1144B93F83B
S3150800B4704430C3F1060382F8C331124BD3F83401C2
S3150800B48058B1FFF729FF4D200BE00133DBB282F8F4
S3150800B490C33103F0FD02092A04D11720FFF780FF04
S3150800B4A0172008BD064A92F84420002A14BF052230
S3150800B4B006229A42E1D00020F3E700BF2836002092
S3150800B4C03025002064400020F0B5354D354F95F8FD
S3150800B4D0C43189B0002B59D105F1C0001AF0E0FB40
S3150800B4E0314A03ABD2F84202D2F8461203C395F8A2
S3150800B4F0C50130B1022400202C4B2D4A2D49009459
